{
  "_format": "hh-sol-artifact-1",
  "contractName": "NFT",
  "sourceName": "contracts/NFT.sol",
  "abi": [
    {
      "inputs": [
        {
          "internalType": "string",
          "name": "_contractMetadata",
          "type": "string"
        }
      ],
      "stateMutability": "payable",
      "type": "constructor"
    },
    {
      "anonymous": false,
      "inputs": [
        {
          "indexed": true,
          "internalType": "address",
          "name": "owner",
          "type": "address"
        },
        {
          "indexed": true,
          "internalType": "address",
          "name": "approved",
          "type": "address"
        },
        {
          "indexed": true,
          "internalType": "uint256",
          "name": "tokenId",
          "type": "uint256"
        }
      ],
      "name": "Approval",
      "type": "event"
    },
    {
      "anonymous": false,
      "inputs": [
        {
          "indexed": true,
          "internalType": "address",
          "name": "owner",
          "type": "address"
        },
        {
          "indexed": true,
          "internalType": "address",
          "name": "operator",
          "type": "address"
        },
        {
          "indexed": false,
          "internalType": "bool",
          "name": "approved",
          "type": "bool"
        }
      ],
      "name": "ApprovalForAll",
      "type": "event"
    },
    {
      "anonymous": false,
      "inputs": [
        {
          "indexed": true,
          "internalType": "address",
          "name": "delegator",
          "type": "address"
        },
        {
          "indexed": true,
          "internalType": "address",
          "name": "fromDelegate",
          "type": "address"
        },
        {
          "indexed": true,
          "internalType": "address",
          "name": "toDelegate",
          "type": "address"
        }
      ],
      "name": "DelegateChanged",
      "type": "event"
    },
    {
      "anonymous": false,
      "inputs": [
        {
          "indexed": true,
          "internalType": "address",
          "name": "delegate",
          "type": "address"
        },
        {
          "indexed": false,
          "internalType": "uint256",
          "name": "previousBalance",
          "type": "uint256"
        },
        {
          "indexed": false,
          "internalType": "uint256",
          "name": "newBalance",
          "type": "uint256"
        }
      ],
      "name": "DelegateVotesChanged",
      "type": "event"
    },
    {
      "anonymous": false,
      "inputs": [
        {
          "indexed": true,
          "internalType": "address",
          "name": "previousOwner",
          "type": "address"
        },
        {
          "indexed": true,
          "internalType": "address",
          "name": "newOwner",
          "type": "address"
        }
      ],
      "name": "OwnershipTransferred",
      "type": "event"
    },
    {
      "anonymous": false,
      "inputs": [
        {
          "indexed": false,
          "internalType": "address",
          "name": "account",
          "type": "address"
        }
      ],
      "name": "Paused",
      "type": "event"
    },
    {
      "anonymous": false,
      "inputs": [
        {
          "indexed": true,
          "internalType": "address",
          "name": "from",
          "type": "address"
        },
        {
          "indexed": true,
          "internalType": "address",
          "name": "to",
          "type": "address"
        },
        {
          "indexed": true,
          "internalType": "uint256",
          "name": "tokenId",
          "type": "uint256"
        }
      ],
      "name": "Transfer",
      "type": "event"
    },
    {
      "anonymous": false,
      "inputs": [
        {
          "indexed": false,
          "internalType": "address",
          "name": "account",
          "type": "address"
        }
      ],
      "name": "Unpaused",
      "type": "event"
    },
    {
      "inputs": [],
      "name": "DOMAIN_SEPARATOR",
      "outputs": [
        {
          "internalType": "bytes32",
          "name": "",
          "type": "bytes32"
        }
      ],
      "stateMutability": "view",
      "type": "function"
    },
    {
      "inputs": [
        {
          "internalType": "address",
          "name": "to",
          "type": "address"
        },
        {
          "internalType": "uint256",
          "name": "tokenId",
          "type": "uint256"
        }
      ],
      "name": "approve",
      "outputs": [],
      "stateMutability": "nonpayable",
      "type": "function"
    },
    {
      "inputs": [
        {
          "internalType": "address",
          "name": "owner",
          "type": "address"
        }
      ],
      "name": "balanceOf",
      "outputs": [
        {
          "internalType": "uint256",
          "name": "",
          "type": "uint256"
        }
      ],
      "stateMutability": "view",
      "type": "function"
    },
    {
      "inputs": [
        {
          "internalType": "uint256",
          "name": "tokenId",
          "type": "uint256"
        }
      ],
      "name": "burn",
      "outputs": [],
      "stateMutability": "nonpayable",
      "type": "function"
    },
    {
      "inputs": [],
      "name": "contractMetadata",
      "outputs": [
        {
          "internalType": "string",
          "name": "",
          "type": "string"
        }
      ],
      "stateMutability": "view",
      "type": "function"
    },
    {
      "inputs": [],
      "name": "contractURI",
      "outputs": [
        {
          "internalType": "string",
          "name": "",
          "type": "string"
        }
      ],
      "stateMutability": "view",
      "type": "function"
    },
    {
      "inputs": [
        {
          "internalType": "address",
          "name": "delegatee",
          "type": "address"
        }
      ],
      "name": "delegate",
      "outputs": [],
      "stateMutability": "nonpayable",
      "type": "function"
    },
    {
      "inputs": [
        {
          "internalType": "address",
          "name": "delegatee",
          "type": "address"
        },
        {
          "internalType": "uint256",
          "name": "nonce",
          "type": "uint256"
        },
        {
          "internalType": "uint256",
          "name": "expiry",
          "type": "uint256"
        },
        {
          "internalType": "uint8",
          "name": "v",
          "type": "uint8"
        },
        {
          "internalType": "bytes32",
          "name": "r",
          "type": "bytes32"
        },
        {
          "internalType": "bytes32",
          "name": "s",
          "type": "bytes32"
        }
      ],
      "name": "delegateBySig",
      "outputs": [],
      "stateMutability": "nonpayable",
      "type": "function"
    },
    {
      "inputs": [
        {
          "internalType": "address",
          "name": "account",
          "type": "address"
        }
      ],
      "name": "delegates",
      "outputs": [
        {
          "internalType": "address",
          "name": "",
          "type": "address"
        }
      ],
      "stateMutability": "view",
      "type": "function"
    },
    {
      "inputs": [
        {
          "internalType": "address payable",
          "name": "_admin",
          "type": "address"
        }
      ],
      "name": "deleteContract",
      "outputs": [],
      "stateMutability": "nonpayable",
      "type": "function"
    },
    {
      "inputs": [
        {
          "internalType": "uint256",
          "name": "tokenId",
          "type": "uint256"
        }
      ],
      "name": "getApproved",
      "outputs": [
        {
          "internalType": "address",
          "name": "",
          "type": "address"
        }
      ],
      "stateMutability": "view",
      "type": "function"
    },
    {
      "inputs": [
        {
          "internalType": "uint256",
          "name": "blockNumber",
          "type": "uint256"
        }
      ],
      "name": "getPastTotalSupply",
      "outputs": [
        {
          "internalType": "uint256",
          "name": "",
          "type": "uint256"
        }
      ],
      "stateMutability": "view",
      "type": "function"
    },
    {
      "inputs": [
        {
          "internalType": "address",
          "name": "account",
          "type": "address"
        },
        {
          "internalType": "uint256",
          "name": "blockNumber",
          "type": "uint256"
        }
      ],
      "name": "getPastVotes",
      "outputs": [
        {
          "internalType": "uint256",
          "name": "",
          "type": "uint256"
        }
      ],
      "stateMutability": "view",
      "type": "function"
    },
    {
      "inputs": [],
      "name": "getTokenCurrentTokenID",
      "outputs": [
        {
          "internalType": "uint256",
          "name": "",
          "type": "uint256"
        }
      ],
      "stateMutability": "view",
      "type": "function"
    },
    {
      "inputs": [],
      "name": "getTotalSupply",
      "outputs": [
        {
          "internalType": "uint256",
          "name": "",
          "type": "uint256"
        }
      ],
      "stateMutability": "view",
      "type": "function"
    },
    {
      "inputs": [
        {
          "internalType": "address",
          "name": "account",
          "type": "address"
        }
      ],
      "name": "getVotes",
      "outputs": [
        {
          "internalType": "uint256",
          "name": "",
          "type": "uint256"
        }
      ],
      "stateMutability": "view",
      "type": "function"
    },
    {
      "inputs": [
        {
          "internalType": "address",
          "name": "owner",
          "type": "address"
        },
        {
          "internalType": "address",
          "name": "operator",
          "type": "address"
        }
      ],
      "name": "isApprovedForAll",
      "outputs": [
        {
          "internalType": "bool",
          "name": "",
          "type": "bool"
        }
      ],
      "stateMutability": "view",
      "type": "function"
    },
    {
      "inputs": [],
      "name": "maxSupply",
      "outputs": [
        {
          "internalType": "uint256",
          "name": "",
          "type": "uint256"
        }
      ],
      "stateMutability": "view",
      "type": "function"
    },
    {
      "inputs": [],
      "name": "name",
      "outputs": [
        {
          "internalType": "string",
          "name": "",
          "type": "string"
        }
      ],
      "stateMutability": "view",
      "type": "function"
    },
    {
      "inputs": [
        {
          "internalType": "address",
          "name": "owner",
          "type": "address"
        }
      ],
      "name": "nonces",
      "outputs": [
        {
          "internalType": "uint256",
          "name": "",
          "type": "uint256"
        }
      ],
      "stateMutability": "view",
      "type": "function"
    },
    {
      "inputs": [],
      "name": "owner",
      "outputs": [
        {
          "internalType": "address",
          "name": "",
          "type": "address"
        }
      ],
      "stateMutability": "view",
      "type": "function"
    },
    {
      "inputs": [
        {
          "internalType": "uint256",
          "name": "tokenId",
          "type": "uint256"
        }
      ],
      "name": "ownerOf",
      "outputs": [
        {
          "internalType": "address",
          "name": "",
          "type": "address"
        }
      ],
      "stateMutability": "view",
      "type": "function"
    },
    {
      "inputs": [],
      "name": "pause",
      "outputs": [],
      "stateMutability": "nonpayable",
      "type": "function"
    },
    {
      "inputs": [],
      "name": "paused",
      "outputs": [
        {
          "internalType": "bool",
          "name": "",
          "type": "bool"
        }
      ],
      "stateMutability": "view",
      "type": "function"
    },
    {
      "inputs": [
        {
          "internalType": "address",
          "name": "to",
          "type": "address"
        },
        {
          "internalType": "string",
          "name": "_tokenURI",
          "type": "string"
        }
      ],
      "name": "receivePayThenMint",
      "outputs": [],
      "stateMutability": "payable",
      "type": "function"
    },
    {
      "inputs": [],
      "name": "renounceOwnership",
      "outputs": [],
      "stateMutability": "nonpayable",
      "type": "function"
    },
    {
      "inputs": [
        {
          "internalType": "address",
          "name": "from",
          "type": "address"
        },
        {
          "internalType": "address",
          "name": "to",
          "type": "address"
        },
        {
          "internalType": "uint256",
          "name": "tokenId",
          "type": "uint256"
        }
      ],
      "name": "safeTransferFrom",
      "outputs": [],
      "stateMutability": "nonpayable",
      "type": "function"
    },
    {
      "inputs": [
        {
          "internalType": "address",
          "name": "from",
          "type": "address"
        },
        {
          "internalType": "address",
          "name": "to",
          "type": "address"
        },
        {
          "internalType": "uint256",
          "name": "tokenId",
          "type": "uint256"
        },
        {
          "internalType": "bytes",
          "name": "_data",
          "type": "bytes"
        }
      ],
      "name": "safeTransferFrom",
      "outputs": [],
      "stateMutability": "nonpayable",
      "type": "function"
    },
    {
      "inputs": [],
      "name": "salesPrice",
      "outputs": [
        {
          "internalType": "uint256",
          "name": "",
          "type": "uint256"
        }
      ],
      "stateMutability": "view",
      "type": "function"
    },
    {
      "inputs": [
        {
          "internalType": "address",
          "name": "operator",
          "type": "address"
        },
        {
          "internalType": "bool",
          "name": "approved",
          "type": "bool"
        }
      ],
      "name": "setApprovalForAll",
      "outputs": [],
      "stateMutability": "nonpayable",
      "type": "function"
    },
    {
      "inputs": [
        {
          "internalType": "string",
          "name": "_contractMetadata",
          "type": "string"
        }
      ],
      "name": "setContractURI",
      "outputs": [],
      "stateMutability": "nonpayable",
      "type": "function"
    },
    {
      "inputs": [
        {
          "internalType": "uint256",
          "name": "_salesPrice",
          "type": "uint256"
        }
      ],
      "name": "setSalesPrice",
      "outputs": [],
      "stateMutability": "nonpayable",
      "type": "function"
    },
    {
      "inputs": [
        {
          "internalType": "uint256",
          "name": "_maxSupply",
          "type": "uint256"
        }
      ],
      "name": "setTotalSupply",
      "outputs": [],
      "stateMutability": "nonpayable",
      "type": "function"
    },
    {
      "inputs": [
        {
          "internalType": "bytes4",
          "name": "interfaceId",
          "type": "bytes4"
        }
      ],
      "name": "supportsInterface",
      "outputs": [
        {
          "internalType": "bool",
          "name": "",
          "type": "bool"
        }
      ],
      "stateMutability": "view",
      "type": "function"
    },
    {
      "inputs": [],
      "name": "symbol",
      "outputs": [
        {
          "internalType": "string",
          "name": "",
          "type": "string"
        }
      ],
      "stateMutability": "view",
      "type": "function"
    },
    {
      "inputs": [
        {
          "internalType": "uint256",
          "name": "index",
          "type": "uint256"
        }
      ],
      "name": "tokenByIndex",
      "outputs": [
        {
          "internalType": "uint256",
          "name": "",
          "type": "uint256"
        }
      ],
      "stateMutability": "view",
      "type": "function"
    },
    {
      "inputs": [
        {
          "internalType": "address",
          "name": "owner",
          "type": "address"
        },
        {
          "internalType": "uint256",
          "name": "index",
          "type": "uint256"
        }
      ],
      "name": "tokenOfOwnerByIndex",
      "outputs": [
        {
          "internalType": "uint256",
          "name": "",
          "type": "uint256"
        }
      ],
      "stateMutability": "view",
      "type": "function"
    },
    {
      "inputs": [
        {
          "internalType": "uint256",
          "name": "tokenId",
          "type": "uint256"
        }
      ],
      "name": "tokenURI",
      "outputs": [
        {
          "internalType": "string",
          "name": "",
          "type": "string"
        }
      ],
      "stateMutability": "view",
      "type": "function"
    },
    {
      "inputs": [],
      "name": "totalSupply",
      "outputs": [
        {
          "internalType": "uint256",
          "name": "",
          "type": "uint256"
        }
      ],
      "stateMutability": "view",
      "type": "function"
    },
    {
      "inputs": [
        {
          "internalType": "address",
          "name": "from",
          "type": "address"
        },
        {
          "internalType": "address",
          "name": "to",
          "type": "address"
        },
        {
          "internalType": "uint256",
          "name": "tokenId",
          "type": "uint256"
        }
      ],
      "name": "transferFrom",
      "outputs": [],
      "stateMutability": "nonpayable",
      "type": "function"
    },
    {
      "inputs": [
        {
          "internalType": "address",
          "name": "newOwner",
          "type": "address"
        }
      ],
      "name": "transferOwnership",
      "outputs": [],
      "stateMutability": "nonpayable",
      "type": "function"
    },
    {
      "inputs": [],
      "name": "unpause",
      "outputs": [],
      "stateMutability": "nonpayable",
      "type": "function"
    },
    {
      "inputs": [
        {
          "internalType": "uint256",
          "name": "amount",
          "type": "uint256"
        },
        {
          "internalType": "address payable",
          "name": "destAddress",
          "type": "address"
        }
      ],
      "name": "withdraw",
      "outputs": [],
      "stateMutability": "nonpayable",
      "type": "function"
    },
    {
      "stateMutability": "payable",
      "type": "receive"
    }
  ],
  "bytecode": "0x61014060405260405162006ec438038062006ec483398181016040528101906200002a919062000488565b6040518060400160405280600881526020017f4d7920546f6b656e0000000000000000000000000000000000000000000000008152506040518060400160405280600181526020017f31000000000000000000000000000000000000000000000000000000000000008152506040518060400160405280600881526020017f4d7920546f6b656e0000000000000000000000000000000000000000000000008152506040518060400160405280600381526020017f4d5954000000000000000000000000000000000000000000000000000000000081525081600090805190602001906200011a92919062000366565b5080600190805190602001906200013392919062000366565b5050506000600b60006101000a81548160ff02191690831515021790555062000171620001656200025c60201b60201c565b6200026460201b60201c565b60008280519060200120905060008280519060200120905060007f8b73c3c69bb8fe3d512ecc4cf759cc79239f7b179b0ffacaa9a75d522b39400f90508260e081815250508161010081815250504660a08181525050620001da8184846200032a60201b60201c565b608081815250503073ffffffffffffffffffffffffffffffffffffffff1660c08173ffffffffffffffffffffffffffffffffffffffff1660601b815250508061012081815250505050505050662386f26fc10000601181905550600560128190555080601390805190602001906200025492919062000366565b505062000715565b600033905090565b6000600b60019054906101000a900473ffffffffffffffffffffffffffffffffffffffff16905081600b60016101000a81548173ffffffffffffffffffffffffffffffffffffffff021916908373ffffffffffffffffffffffffffffffffffffffff1602179055508173ffffffffffffffffffffffffffffffffffffffff168173ffffffffffffffffffffffffffffffffffffffff167f8be0079c531659141344cd1fd0a4f28419497f9722a3daafe3b4186f6b6457e060405160405180910390a35050565b600083838346306040516020016200034795949392919062000500565b6040516020818303038152906040528051906020012090509392505050565b82805462000374906200063a565b90600052602060002090601f016020900481019282620003985760008555620003e4565b82601f10620003b357805160ff1916838001178555620003e4565b82800160010185558215620003e4579182015b82811115620003e3578251825591602001919060010190620003c6565b5b509050620003f39190620003f7565b5090565b5b8082111562000412576000816000905550600101620003f8565b5090565b60006200042d620004278462000586565b6200055d565b9050828152602081018484840111156200044657600080fd5b6200045384828562000604565b509392505050565b600082601f8301126200046d57600080fd5b81516200047f84826020860162000416565b91505092915050565b6000602082840312156200049b57600080fd5b600082015167ffffffffffffffff811115620004b657600080fd5b620004c4848285016200045b565b91505092915050565b620004d881620005bc565b82525050565b620004e981620005d0565b82525050565b620004fa81620005fa565b82525050565b600060a082019050620005176000830188620004de565b620005266020830187620004de565b620005356040830186620004de565b620005446060830185620004ef565b620005536080830184620004cd565b9695505050505050565b6000620005696200057c565b905062000577828262000670565b919050565b6000604051905090565b600067ffffffffffffffff821115620005a457620005a3620006d5565b5b620005af8262000704565b9050602081019050919050565b6000620005c982620005da565b9050919050565b6000819050919050565b600073ffffffffffffffffffffffffffffffffffffffff82169050919050565b6000819050919050565b60005b838110156200062457808201518184015260208101905062000607565b8381111562000634576000848401525b50505050565b600060028204905060018216806200065357607f821691505b602082108114156200066a5762000669620006a6565b5b50919050565b6200067b8262000704565b810181811067ffffffffffffffff821117156200069d576200069c620006d5565b5b80604052505050565b7f4e487b7100000000000000000000000000000000000000000000000000000000600052602260045260246000fd5b7f4e487b7100000000000000000000000000000000000000000000000000000000600052604160045260246000fd5b6000601f19601f8301169050919050565b60805160a05160c05160601c60e051610100516101205161675c620007686000396000612260015260006122a201526000612281015260006121b60152600061220c01526000612235015261675c6000f3fe60806040526004361061025f5760003560e01c806370a0823111610144578063a76b4d56116100b6578063d5abeb011161007a578063d5abeb0114610919578063e58e8df714610944578063e8a3d4851461096d578063e985e9c514610998578063f2fde38b146109d5578063f7ea7a3d146109fe57610266565b8063a76b4d5614610834578063b88d4fde1461085f578063c3cda52014610888578063c4e41b22146108b1578063c87b56dd146108dc57610266565b80638e539e8c116101085780638e539e8c14610712578063938e3d7b1461074f57806395d89b41146107785780639ab24eb0146107a35780639d284ce9146107e0578063a22cb4651461080b57610266565b806370a082311461063f578063715018a61461067c5780637ecebe00146106935780638456cb59146106d05780638da5cb5b146106e757610266565b80633644e515116101dd5780634f6ccce7116101a15780634f6ccce714610509578063587cde1e146105465780635c19a95c146105835780635c975abb146105ac5780636352211e146105d757806368e8a8701461061457610266565b80633644e515146104385780633a46b1a8146104635780633f4ba83a146104a057806342842e0e146104b757806342966c68146104e057610266565b8063095ea7b311610224578063095ea7b31461035557806318160ddd1461037e57806323b872dd146103a95780632637a477146103d25780632f745c59146103fb57610266565b8062f714ce1461026b57806301ffc9a71461029457806303c7abc9146102d157806306fdde03146102ed578063081812fc1461031857610266565b3661026657005b600080fd5b34801561027757600080fd5b50610292600480360381019061028d9190614c0b565b610a27565b005b3480156102a057600080fd5b506102bb60048036038101906102b69190614b4f565b610b31565b6040516102c8919061531d565b60405180910390f35b6102eb60048036038101906102e69190614a36565b610b43565b005b3480156102f957600080fd5b50610302610b95565b60405161030f9190615430565b60405180910390f35b34801561032457600080fd5b5061033f600480360381019061033a9190614be2565b610c27565b60405161034c91906152b6565b60405180910390f35b34801561036157600080fd5b5061037c60048036038101906103779190614a8a565b610cac565b005b34801561038a57600080fd5b50610393610dc4565b6040516103a091906158d2565b60405180910390f35b3480156103b557600080fd5b506103d060048036038101906103cb9190614930565b610dd1565b005b3480156103de57600080fd5b506103f960048036038101906103f491906148cb565b610e31565b005b34801561040757600080fd5b50610422600480360381019061041d9190614a8a565b610ec6565b60405161042f91906158d2565b60405180910390f35b34801561044457600080fd5b5061044d610f6b565b60405161045a9190615338565b60405180910390f35b34801561046f57600080fd5b5061048a60048036038101906104859190614a8a565b610f7a565b60405161049791906158d2565b60405180910390f35b3480156104ac57600080fd5b506104b5610fd5565b005b3480156104c357600080fd5b506104de60048036038101906104d99190614930565b61105b565b005b3480156104ec57600080fd5b5061050760048036038101906105029190614be2565b61107b565b005b34801561051557600080fd5b50610530600480360381019061052b9190614be2565b6110d7565b60405161053d91906158d2565b60405180910390f35b34801561055257600080fd5b5061056d600480360381019061056891906148a2565b61116e565b60405161057a91906152b6565b60405180910390f35b34801561058f57600080fd5b506105aa60048036038101906105a591906148a2565b6111d7565b005b3480156105b857600080fd5b506105c16111f1565b6040516105ce919061531d565b60405180910390f35b3480156105e357600080fd5b506105fe60048036038101906105f99190614be2565b611208565b60405161060b91906152b6565b60405180910390f35b34801561062057600080fd5b506106296112ba565b60405161063691906158d2565b60405180910390f35b34801561064b57600080fd5b50610666600480360381019061066191906148a2565b6112d0565b60405161067391906158d2565b60405180910390f35b34801561068857600080fd5b50610691611388565b005b34801561069f57600080fd5b506106ba60048036038101906106b591906148a2565b611410565b6040516106c791906158d2565b60405180910390f35b3480156106dc57600080fd5b506106e5611460565b005b3480156106f357600080fd5b506106fc6114e6565b60405161070991906152b6565b60405180910390f35b34801561071e57600080fd5b5061073960048036038101906107349190614be2565b611510565b60405161074691906158d2565b60405180910390f35b34801561075b57600080fd5b5061077660048036038101906107719190614ba1565b61156f565b005b34801561078457600080fd5b5061078d611605565b60405161079a9190615430565b60405180910390f35b3480156107af57600080fd5b506107ca60048036038101906107c591906148a2565b611697565b6040516107d791906158d2565b60405180910390f35b3480156107ec57600080fd5b506107f56116e7565b60405161080291906158d2565b60405180910390f35b34801561081757600080fd5b50610832600480360381019061082d91906149fa565b6116ed565b005b34801561084057600080fd5b50610849611703565b6040516108569190615430565b60405180910390f35b34801561086b57600080fd5b506108866004803603810190610881919061497f565b611791565b005b34801561089457600080fd5b506108af60048036038101906108aa9190614ac6565b6117f3565b005b3480156108bd57600080fd5b506108c66118f7565b6040516108d391906158d2565b60405180910390f35b3480156108e857600080fd5b5061090360048036038101906108fe9190614be2565b611906565b6040516109109190615430565b60405180910390f35b34801561092557600080fd5b5061092e611918565b60405161093b91906158d2565b60405180910390f35b34801561095057600080fd5b5061096b60048036038101906109669190614be2565b61191e565b005b34801561097957600080fd5b506109826119a4565b60405161098f9190615430565b60405180910390f35b3480156109a457600080fd5b506109bf60048036038101906109ba91906148f4565b611a36565b6040516109cc919061531d565b60405180910390f35b3480156109e157600080fd5b506109fc60048036038101906109f791906148a2565b611aca565b005b348015610a0a57600080fd5b50610a256004803603810190610a209190614be2565b611bc2565b005b610a2f611c48565b73ffffffffffffffffffffffffffffffffffffffff16610a4d6114e6565b73ffffffffffffffffffffffffffffffffffffffff1614610aa3576040517f08c379a0000000000000000000000000000000000000000000000000000000008152600401610a9a90615792565b60405180910390fd5b47821115610ae6576040517f08c379a0000000000000000000000000000000000000000000000000000000008152600401610add90615812565b60405180910390fd5b8073ffffffffffffffffffffffffffffffffffffffff166108fc839081150290604051600060405180830381858888f19350505050158015610b2c573d6000803e3d6000fd5b505050565b6000610b3c82611c50565b9050919050565b6011543414610b87576040517f08c379a0000000000000000000000000000000000000000000000000000000008152600401610b7e906155b2565b60405180910390fd5b610b918282611cca565b5050565b606060008054610ba490615b7a565b80601f0160208091040260200160405190810160405280929190818152602001828054610bd090615b7a565b8015610c1d5780601f10610bf257610100808354040283529160200191610c1d565b820191906000526020600020905b815481529060010190602001808311610c0057829003601f168201915b5050505050905090565b6000610c3282611d48565b610c71576040517f08c379a0000000000000000000000000000000000000000000000000000000008152600401610c6890615772565b60405180910390fd5b6004600083815260200190815260200160002060009054906101000a900473ffffffffffffffffffffffffffffffffffffffff169050919050565b6000610cb782611208565b90508073ffffffffffffffffffffffffffffffffffffffff168373ffffffffffffffffffffffffffffffffffffffff161415610d28576040517f08c379a0000000000000000000000000000000000000000000000000000000008152600401610d1f90615832565b60405180910390fd5b8073ffffffffffffffffffffffffffffffffffffffff16610d47611c48565b73ffffffffffffffffffffffffffffffffffffffff161480610d765750610d7581610d70611c48565b611a36565b5b610db5576040517f08c379a0000000000000000000000000000000000000000000000000000000008152600401610dac90615672565b60405180910390fd5b610dbf8383611db4565b505050565b6000600880549050905090565b610de2610ddc611c48565b82611e6d565b610e21576040517f08c379a0000000000000000000000000000000000000000000000000000000008152600401610e1890615852565b60405180910390fd5b610e2c838383611f4b565b505050565b610e39611c48565b73ffffffffffffffffffffffffffffffffffffffff16610e576114e6565b73ffffffffffffffffffffffffffffffffffffffff1614610ead576040517f08c379a0000000000000000000000000000000000000000000000000000000008152600401610ea490615792565b60405180910390fd5b8073ffffffffffffffffffffffffffffffffffffffff16ff5b6000610ed1836112d0565b8210610f12576040517f08c379a0000000000000000000000000000000000000000000000000000000008152600401610f09906154d2565b60405180910390fd5b600660008473ffffffffffffffffffffffffffffffffffffffff1673ffffffffffffffffffffffffffffffffffffffff168152602001908152602001600020600083815260200190815260200160002054905092915050565b6000610f756121b2565b905090565b6000610fcd82600d60008673ffffffffffffffffffffffffffffffffffffffff1673ffffffffffffffffffffffffffffffffffffffff1681526020019081526020016000206122cc90919063ffffffff16565b905092915050565b610fdd611c48565b73ffffffffffffffffffffffffffffffffffffffff16610ffb6114e6565b73ffffffffffffffffffffffffffffffffffffffff1614611051576040517f08c379a000000000000000000000000000000000000000000000000000000000815260040161104890615792565b60405180910390fd5b611059612470565b565b61107683838360405180602001604052806000815250611791565b505050565b61108c611086611c48565b82611e6d565b6110cb576040517f08c379a00000000000000000000000000000000000000000000000000000000081526004016110c2906158b2565b60405180910390fd5b6110d481612512565b50565b60006110e1610dc4565b8210611122576040517f08c379a000000000000000000000000000000000000000000000000000000000815260040161111990615892565b60405180910390fd5b6008828154811061115c577f4e487b7100000000000000000000000000000000000000000000000000000000600052603260045260246000fd5b90600052602060002001549050919050565b6000600c60008373ffffffffffffffffffffffffffffffffffffffff1673ffffffffffffffffffffffffffffffffffffffff16815260200190815260200160002060009054906101000a900473ffffffffffffffffffffffffffffffffffffffff169050919050565b60006111e1611c48565b90506111ed818361251e565b5050565b6000600b60009054906101000a900460ff16905090565b6000806002600084815260200190815260200160002060009054906101000a900473ffffffffffffffffffffffffffffffffffffffff169050600073ffffffffffffffffffffffffffffffffffffffff168173ffffffffffffffffffffffffffffffffffffffff1614156112b1576040517f08c379a00000000000000000000000000000000000000000000000000000000081526004016112a8906156b2565b60405180910390fd5b80915050919050565b6000806112c76010612632565b90508091505090565b60008073ffffffffffffffffffffffffffffffffffffffff168273ffffffffffffffffffffffffffffffffffffffff161415611341576040517f08c379a000000000000000000000000000000000000000000000000000000000815260040161133890615692565b60405180910390fd5b600360008373ffffffffffffffffffffffffffffffffffffffff1673ffffffffffffffffffffffffffffffffffffffff168152602001908152602001600020549050919050565b611390611c48565b73ffffffffffffffffffffffffffffffffffffffff166113ae6114e6565b73ffffffffffffffffffffffffffffffffffffffff1614611404576040517f08c379a00000000000000000000000000000000000000000000000000000000081526004016113fb90615792565b60405180910390fd5b61140e6000612640565b565b6000611459600f60008473ffffffffffffffffffffffffffffffffffffffff1673ffffffffffffffffffffffffffffffffffffffff168152602001908152602001600020612632565b9050919050565b611468611c48565b73ffffffffffffffffffffffffffffffffffffffff166114866114e6565b73ffffffffffffffffffffffffffffffffffffffff16146114dc576040517f08c379a00000000000000000000000000000000000000000000000000000000081526004016114d390615792565b60405180910390fd5b6114e4612706565b565b6000600b60019054906101000a900473ffffffffffffffffffffffffffffffffffffffff16905090565b6000438210611554576040517f08c379a000000000000000000000000000000000000000000000000000000000815260040161154b906156f2565b60405180910390fd5b61156882600e6122cc90919063ffffffff16565b9050919050565b611577611c48565b73ffffffffffffffffffffffffffffffffffffffff166115956114e6565b73ffffffffffffffffffffffffffffffffffffffff16146115eb576040517f08c379a00000000000000000000000000000000000000000000000000000000081526004016115e290615792565b60405180910390fd5b8060139080519060200190611601929190614647565b5050565b60606001805461161490615b7a565b80601f016020809104026020016040519081016040528092919081815260200182805461164090615b7a565b801561168d5780601f106116625761010080835404028352916020019161168d565b820191906000526020600020905b81548152906001019060200180831161167057829003601f168201915b5050505050905090565b60006116e0600d60008473ffffffffffffffffffffffffffffffffffffffff1673ffffffffffffffffffffffffffffffffffffffff1681526020019081526020016000206127a9565b9050919050565b60115481565b6116ff6116f8611c48565b838361286a565b5050565b6013805461171090615b7a565b80601f016020809104026020016040519081016040528092919081815260200182805461173c90615b7a565b80156117895780601f1061175e57610100808354040283529160200191611789565b820191906000526020600020905b81548152906001019060200180831161176c57829003601f168201915b505050505081565b6117a261179c611c48565b83611e6d565b6117e1576040517f08c379a00000000000000000000000000000000000000000000000000000000081526004016117d890615852565b60405180910390fd5b6117ed848484846129d7565b50505050565b83421115611836576040517f08c379a000000000000000000000000000000000000000000000000000000000815260040161182d90615652565b60405180910390fd5b60006118986118907fe48329057bfd03d55e49b547132e39cffd9c1820ad7b9d4c5307691425d15adf8989896040516020016118759493929190615353565b60405160208183030381529060405280519060200120612a33565b858585612a4d565b90506118a381612a78565b86146118e4576040517f08c379a00000000000000000000000000000000000000000000000000000000081526004016118db90615492565b60405180910390fd5b6118ee818861251e565b50505050505050565b6000611901612ad6565b905090565b606061191182612ae7565b9050919050565b60125481565b611926611c48565b73ffffffffffffffffffffffffffffffffffffffff166119446114e6565b73ffffffffffffffffffffffffffffffffffffffff161461199a576040517f08c379a000000000000000000000000000000000000000000000000000000000815260040161199190615792565b60405180910390fd5b8060118190555050565b6060601380546119b390615b7a565b80601f01602080910402602001604051908101604052809291908181526020018280546119df90615b7a565b8015611a2c5780601f10611a0157610100808354040283529160200191611a2c565b820191906000526020600020905b815481529060010190602001808311611a0f57829003601f168201915b5050505050905090565b6000600560008473ffffffffffffffffffffffffffffffffffffffff1673ffffffffffffffffffffffffffffffffffffffff16815260200190815260200160002060008373ffffffffffffffffffffffffffffffffffffffff1673ffffffffffffffffffffffffffffffffffffffff16815260200190815260200160002060009054906101000a900460ff16905092915050565b611ad2611c48565b73ffffffffffffffffffffffffffffffffffffffff16611af06114e6565b73ffffffffffffffffffffffffffffffffffffffff1614611b46576040517f08c379a0000000000000000000000000000000000000000000000000000000008152600401611b3d90615792565b60405180910390fd5b600073ffffffffffffffffffffffffffffffffffffffff168173ffffffffffffffffffffffffffffffffffffffff161415611bb6576040517f08c379a0000000000000000000000000000000000000000000000000000000008152600401611bad90615512565b60405180910390fd5b611bbf81612640565b50565b611bca611c48565b73ffffffffffffffffffffffffffffffffffffffff16611be86114e6565b73ffffffffffffffffffffffffffffffffffffffff1614611c3e576040517f08c379a0000000000000000000000000000000000000000000000000000000008152600401611c3590615792565b60405180910390fd5b8060128190555050565b600033905090565b60007f780e9d63000000000000000000000000000000000000000000000000000000007bffffffffffffffffffffffffffffffffffffffffffffffffffffffff1916827bffffffffffffffffffffffffffffffffffffffffffffffffffffffff19161480611cc35750611cc282612c39565b5b9050919050565b601254611cd76010612632565b10611d17576040517f08c379a0000000000000000000000000000000000000000000000000000000008152600401611d0e906157f2565b60405180910390fd5b6000611d236010612632565b9050611d2f6010612d1b565b611d398382612d31565b611d438183612d4f565b505050565b60008073ffffffffffffffffffffffffffffffffffffffff166002600084815260200190815260200160002060009054906101000a900473ffffffffffffffffffffffffffffffffffffffff1673ffffffffffffffffffffffffffffffffffffffff1614159050919050565b816004600083815260200190815260200160002060006101000a81548173ffffffffffffffffffffffffffffffffffffffff021916908373ffffffffffffffffffffffffffffffffffffffff160217905550808273ffffffffffffffffffffffffffffffffffffffff16611e2783611208565b73ffffffffffffffffffffffffffffffffffffffff167f8c5be1e5ebec7d5bd14f71427d1e84f3dd0314c0f7b2291e5b200ac8c7c3b92560405160405180910390a45050565b6000611e7882611d48565b611eb7576040517f08c379a0000000000000000000000000000000000000000000000000000000008152600401611eae906155f2565b60405180910390fd5b6000611ec283611208565b90508073ffffffffffffffffffffffffffffffffffffffff168473ffffffffffffffffffffffffffffffffffffffff161480611f3157508373ffffffffffffffffffffffffffffffffffffffff16611f1984610c27565b73ffffffffffffffffffffffffffffffffffffffff16145b80611f425750611f418185611a36565b5b91505092915050565b8273ffffffffffffffffffffffffffffffffffffffff16611f6b82611208565b73ffffffffffffffffffffffffffffffffffffffff1614611fc1576040517f08c379a0000000000000000000000000000000000000000000000000000000008152600401611fb890615532565b60405180910390fd5b600073ffffffffffffffffffffffffffffffffffffffff168273ffffffffffffffffffffffffffffffffffffffff161415612031576040517f08c379a000000000000000000000000000000000000000000000000000000000815260040161202890615572565b60405180910390fd5b61203c838383612dc3565b612047600082611db4565b6001600360008573ffffffffffffffffffffffffffffffffffffffff1673ffffffffffffffffffffffffffffffffffffffff16815260200190815260200160002060008282546120979190615a67565b925050819055506001600360008473ffffffffffffffffffffffffffffffffffffffff1673ffffffffffffffffffffffffffffffffffffffff16815260200190815260200160002060008282546120ee91906159e0565b92505081905550816002600083815260200190815260200160002060006101000a81548173ffffffffffffffffffffffffffffffffffffffff021916908373ffffffffffffffffffffffffffffffffffffffff160217905550808273ffffffffffffffffffffffffffffffffffffffff168473ffffffffffffffffffffffffffffffffffffffff167fddf252ad1be2c89b69c2b068fc378daa952ba7f163c4a11628f55a4df523b3ef60405160405180910390a46121ad838383612e1b565b505050565b60007f000000000000000000000000000000000000000000000000000000000000000073ffffffffffffffffffffffffffffffffffffffff163073ffffffffffffffffffffffffffffffffffffffff1614801561222e57507f000000000000000000000000000000000000000000000000000000000000000046145b1561225b577f000000000000000000000000000000000000000000000000000000000000000090506122c9565b6122c67f00000000000000000000000000000000000000000000000000000000000000007f00000000000000000000000000000000000000000000000000000000000000007f0000000000000000000000000000000000000000000000000000000000000000612e2b565b90505b90565b6000438210612310576040517f08c379a000000000000000000000000000000000000000000000000000000000815260040161230790615612565b60405180910390fd5b60008360000180549050905060005b818110156123ba5760006123338284612e65565b905084866000018281548110612372577f4e487b7100000000000000000000000000000000000000000000000000000000600052603260045260246000fd5b9060005260206000200160000160009054906101000a900463ffffffff1663ffffffff1611156123a4578092506123b4565b6001816123b191906159e0565b91505b5061231f565b6000821461244557846000016001836123d39190615a67565b8154811061240a577f4e487b7100000000000000000000000000000000000000000000000000000000600052603260045260246000fd5b9060005260206000200160000160049054906101000a90047bffffffffffffffffffffffffffffffffffffffffffffffffffffffff16612448565b60005b7bffffffffffffffffffffffffffffffffffffffffffffffffffffffff169250505092915050565b6124786111f1565b6124b7576040517f08c379a00000000000000000000000000000000000000000000000000000000081526004016124ae90615472565b60405180910390fd5b6000600b60006101000a81548160ff0219169083151502179055507f5db9ee0a495bf2e6ff9c91a7834c1ba4fdd244a5e8aa4e537bd38aeae4b073aa6124fb611c48565b60405161250891906152b6565b60405180910390a1565b61251b81612e8b565b50565b60006125298361116e565b905081600c60008573ffffffffffffffffffffffffffffffffffffffff1673ffffffffffffffffffffffffffffffffffffffff16815260200190815260200160002060006101000a81548173ffffffffffffffffffffffffffffffffffffffff021916908373ffffffffffffffffffffffffffffffffffffffff1602179055508173ffffffffffffffffffffffffffffffffffffffff168173ffffffffffffffffffffffffffffffffffffffff168473ffffffffffffffffffffffffffffffffffffffff167f3134e8a2e6d97e929a7e54011ea5485d7d196dd5f0ba4d4ef95803e8e3fc257f60405160405180910390a461262d818361262886612ede565b612ef0565b505050565b600081600001549050919050565b6000600b60019054906101000a900473ffffffffffffffffffffffffffffffffffffffff16905081600b60016101000a81548173ffffffffffffffffffffffffffffffffffffffff021916908373ffffffffffffffffffffffffffffffffffffffff1602179055508173ffffffffffffffffffffffffffffffffffffffff168173ffffffffffffffffffffffffffffffffffffffff167f8be0079c531659141344cd1fd0a4f28419497f9722a3daafe3b4186f6b6457e060405160405180910390a35050565b61270e6111f1565b1561274e576040517f08c379a000000000000000000000000000000000000000000000000000000000815260040161274590615632565b60405180910390fd5b6001600b60006101000a81548160ff0219169083151502179055507f62e78cea01bee320cd4e420270b5ea74000d11b0c9f74754ebdbfc544b05a258612792611c48565b60405161279f91906152b6565b60405180910390a1565b600080826000018054905090506000811461284157826000016001826127cf9190615a67565b81548110612806577f4e487b7100000000000000000000000000000000000000000000000000000000600052603260045260246000fd5b9060005260206000200160000160049054906101000a90047bffffffffffffffffffffffffffffffffffffffffffffffffffffffff16612844565b60005b7bffffffffffffffffffffffffffffffffffffffffffffffffffffffff16915050919050565b8173ffffffffffffffffffffffffffffffffffffffff168373ffffffffffffffffffffffffffffffffffffffff1614156128d9576040517f08c379a00000000000000000000000000000000000000000000000000000000081526004016128d090615592565b60405180910390fd5b80600560008573ffffffffffffffffffffffffffffffffffffffff1673ffffffffffffffffffffffffffffffffffffffff16815260200190815260200160002060008473ffffffffffffffffffffffffffffffffffffffff1673ffffffffffffffffffffffffffffffffffffffff16815260200190815260200160002060006101000a81548160ff0219169083151502179055508173ffffffffffffffffffffffffffffffffffffffff168373ffffffffffffffffffffffffffffffffffffffff167f17307eab39ab6107e8899845ad3d59bd9653f200f220920489ca2b5937696c31836040516129ca919061531d565b60405180910390a3505050565b6129e2848484611f4b565b6129ee848484846130fd565b612a2d576040517f08c379a0000000000000000000000000000000000000000000000000000000008152600401612a24906154f2565b60405180910390fd5b50505050565b6000612a46612a406121b2565b83613294565b9050919050565b6000806000612a5e878787876132c7565b91509150612a6b816133d4565b8192505050949350505050565b600080600f60008473ffffffffffffffffffffffffffffffffffffffff1673ffffffffffffffffffffffffffffffffffffffff1681526020019081526020016000209050612ac581612632565b9150612ad081612d1b565b50919050565b6000612ae2600e6127a9565b905090565b6060612af282611d48565b612b31576040517f08c379a0000000000000000000000000000000000000000000000000000000008152600401612b2890615752565b60405180910390fd5b6000600a60008481526020019081526020016000208054612b5190615b7a565b80601f0160208091040260200160405190810160405280929190818152602001828054612b7d90615b7a565b8015612bca5780601f10612b9f57610100808354040283529160200191612bca565b820191906000526020600020905b815481529060010190602001808311612bad57829003601f168201915b505050505090506000612bdb613725565b9050600081511415612bf1578192505050612c34565b600082511115612c26578082604051602001612c0e92919061525b565b60405160208183030381529060405292505050612c34565b612c2f8461373c565b925050505b919050565b60007f80ac58cd000000000000000000000000000000000000000000000000000000007bffffffffffffffffffffffffffffffffffffffffffffffffffffffff1916827bffffffffffffffffffffffffffffffffffffffffffffffffffffffff19161480612d0457507f5b5e139f000000000000000000000000000000000000000000000000000000007bffffffffffffffffffffffffffffffffffffffffffffffffffffffff1916827bffffffffffffffffffffffffffffffffffffffffffffffffffffffff1916145b80612d145750612d13826137e3565b5b9050919050565b6001816000016000828254019250508190555050565b612d4b82826040518060200160405280600081525061384d565b5050565b612d5882611d48565b612d97576040517f08c379a0000000000000000000000000000000000000000000000000000000008152600401612d8e906156d2565b60405180910390fd5b80600a60008481526020019081526020016000209080519060200190612dbe929190614647565b505050565b612dcb6111f1565b15612e0b576040517f08c379a0000000000000000000000000000000000000000000000000000000008152600401612e0290615632565b60405180910390fd5b612e168383836138a8565b505050565b612e268383836139bc565b505050565b60008383834630604051602001612e46959493929190615398565b6040516020818303038152906040528051906020012090509392505050565b60006002828418612e769190615a36565b828416612e8391906159e0565b905092915050565b612e94816139d8565b6000600a60008381526020019081526020016000208054612eb490615b7a565b905014612edb57600a60008281526020019081526020016000206000612eda91906146cd565b5b50565b6000612ee9826112d0565b9050919050565b8173ffffffffffffffffffffffffffffffffffffffff168373ffffffffffffffffffffffffffffffffffffffff1614158015612f2c5750600081115b156130f857600073ffffffffffffffffffffffffffffffffffffffff168373ffffffffffffffffffffffffffffffffffffffff161461301457600080612fbd613af584600d60008973ffffffffffffffffffffffffffffffffffffffff1673ffffffffffffffffffffffffffffffffffffffff168152602001908152602001600020613b0b9092919063ffffffff16565b915091508473ffffffffffffffffffffffffffffffffffffffff167fdec2bacdd2f05b59de34da9b523dff8be42e5e38e818c82fdb0bae774387a72483836040516130099291906158ed565b60405180910390a250505b600073ffffffffffffffffffffffffffffffffffffffff168273ffffffffffffffffffffffffffffffffffffffff16146130f7576000806130a0613b3984600d60008873ffffffffffffffffffffffffffffffffffffffff1673ffffffffffffffffffffffffffffffffffffffff168152602001908152602001600020613b0b9092919063ffffffff16565b915091508373ffffffffffffffffffffffffffffffffffffffff167fdec2bacdd2f05b59de34da9b523dff8be42e5e38e818c82fdb0bae774387a72483836040516130ec9291906158ed565b60405180910390a250505b5b505050565b600061311e8473ffffffffffffffffffffffffffffffffffffffff16613b4f565b15613287578373ffffffffffffffffffffffffffffffffffffffff1663150b7a02613147611c48565b8786866040518563ffffffff1660e01b815260040161316994939291906152d1565b602060405180830381600087803b15801561318357600080fd5b505af19250505080156131b457506040513d601f19601f820116820180604052508101906131b19190614b78565b60015b613237573d80600081146131e4576040519150601f19603f3d011682016040523d82523d6000602084013e6131e9565b606091505b5060008151141561322f576040517f08c379a0000000000000000000000000000000000000000000000000000000008152600401613226906154f2565b60405180910390fd5b805181602001fd5b63150b7a0260e01b7bffffffffffffffffffffffffffffffffffffffffffffffffffffffff1916817bffffffffffffffffffffffffffffffffffffffffffffffffffffffff19161491505061328c565b600190505b949350505050565b600082826040516020016132a992919061527f565b60405160208183030381529060405280519060200120905092915050565b6000807f7fffffffffffffffffffffffffffffff5d576e7357a4501ddfe92f46681b20a08360001c11156133025760006003915091506133cb565b601b8560ff161415801561331a5750601c8560ff1614155b1561332c5760006004915091506133cb565b60006001878787876040516000815260200160405260405161335194939291906153eb565b6020604051602081039080840390855afa158015613373573d6000803e3d6000fd5b505050602060405103519050600073ffffffffffffffffffffffffffffffffffffffff168173ffffffffffffffffffffffffffffffffffffffff1614156133c2576000600192509250506133cb565b80600092509250505b94509492505050565b6000600481111561340e577f4e487b7100000000000000000000000000000000000000000000000000000000600052602160045260246000fd5b816004811115613447577f4e487b7100000000000000000000000000000000000000000000000000000000600052602160045260246000fd5b141561345257613722565b6001600481111561348c577f4e487b7100000000000000000000000000000000000000000000000000000000600052602160045260246000fd5b8160048111156134c5577f4e487b7100000000000000000000000000000000000000000000000000000000600052602160045260246000fd5b1415613506576040517f08c379a00000000000000000000000000000000000000000000000000000000081526004016134fd90615452565b60405180910390fd5b60026004811115613540577f4e487b7100000000000000000000000000000000000000000000000000000000600052602160045260246000fd5b816004811115613579577f4e487b7100000000000000000000000000000000000000000000000000000000600052602160045260246000fd5b14156135ba576040517f08c379a00000000000000000000000000000000000000000000000000000000081526004016135b1906154b2565b60405180910390fd5b600360048111156135f4577f4e487b7100000000000000000000000000000000000000000000000000000000600052602160045260246000fd5b81600481111561362d577f4e487b7100000000000000000000000000000000000000000000000000000000600052602160045260246000fd5b141561366e576040517f08c379a0000000000000000000000000000000000000000000000000000000008152600401613665906155d2565b60405180910390fd5b6004808111156136a7577f4e487b7100000000000000000000000000000000000000000000000000000000600052602160045260246000fd5b8160048111156136e0577f4e487b7100000000000000000000000000000000000000000000000000000000600052602160045260246000fd5b1415613721576040517f08c379a000000000000000000000000000000000000000000000000000000000815260040161371890615712565b60405180910390fd5b5b50565b606060405180602001604052806000815250905090565b606061374782611d48565b613786576040517f08c379a000000000000000000000000000000000000000000000000000000000815260040161377d906157d2565b60405180910390fd5b6000613790613725565b905060008151116137b057604051806020016040528060008152506137db565b806137ba84613b72565b6040516020016137cb92919061525b565b6040516020818303038152906040525b915050919050565b60007f01ffc9a7000000000000000000000000000000000000000000000000000000007bffffffffffffffffffffffffffffffffffffffffffffffffffffffff1916827bffffffffffffffffffffffffffffffffffffffffffffffffffffffff1916149050919050565b6138578383613d1f565b61386460008484846130fd565b6138a3576040517f08c379a000000000000000000000000000000000000000000000000000000000815260040161389a906154f2565b60405180910390fd5b505050565b6138b3838383613ef9565b600073ffffffffffffffffffffffffffffffffffffffff168373ffffffffffffffffffffffffffffffffffffffff1614156138f6576138f181613efe565b613935565b8173ffffffffffffffffffffffffffffffffffffffff168373ffffffffffffffffffffffffffffffffffffffff1614613934576139338382613f47565b5b5b600073ffffffffffffffffffffffffffffffffffffffff168273ffffffffffffffffffffffffffffffffffffffff16141561397857613973816140b4565b6139b7565b8273ffffffffffffffffffffffffffffffffffffffff168273ffffffffffffffffffffffffffffffffffffffff16146139b6576139b582826141f7565b5b5b505050565b6139c883836001614276565b6139d3838383614336565b505050565b60006139e382611208565b90506139f181600084612dc3565b6139fc600083611db4565b6001600360008373ffffffffffffffffffffffffffffffffffffffff1673ffffffffffffffffffffffffffffffffffffffff1681526020019081526020016000206000828254613a4c9190615a67565b925050819055506002600083815260200190815260200160002060006101000a81549073ffffffffffffffffffffffffffffffffffffffff021916905581600073ffffffffffffffffffffffffffffffffffffffff168273ffffffffffffffffffffffffffffffffffffffff167fddf252ad1be2c89b69c2b068fc378daa952ba7f163c4a11628f55a4df523b3ef60405160405180910390a4613af181600084612e1b565b5050565b60008183613b039190615a67565b905092915050565b600080613b2d85613b28613b1e886127a9565b868863ffffffff16565b61433b565b91509150935093915050565b60008183613b4791906159e0565b905092915050565b6000808273ffffffffffffffffffffffffffffffffffffffff163b119050919050565b60606000821415613bba576040518060400160405280600181526020017f30000000000000000000000000000000000000000000000000000000000000008152509050613d1a565b600082905060005b60008214613bec578080613bd590615bdd565b915050600a82613be59190615a36565b9150613bc2565b60008167ffffffffffffffff811115613c2e577f4e487b7100000000000000000000000000000000000000000000000000000000600052604160045260246000fd5b6040519080825280601f01601f191660200182016040528015613c605781602001600182028036833780820191505090505b5090505b60008514613d1357600182613c799190615a67565b9150600a85613c889190615c30565b6030613c9491906159e0565b60f81b818381518110613cd0577f4e487b7100000000000000000000000000000000000000000000000000000000600052603260045260246000fd5b60200101907effffffffffffffffffffffffffffffffffffffffffffffffffffffffffffff1916908160001a905350600a85613d0c9190615a36565b9450613c64565b8093505050505b919050565b600073ffffffffffffffffffffffffffffffffffffffff168273ffffffffffffffffffffffffffffffffffffffff161415613d8f576040517f08c379a0000000000000000000000000000000000000000000000000000000008152600401613d8690615732565b60405180910390fd5b613d9881611d48565b15613dd8576040517f08c379a0000000000000000000000000000000000000000000000000000000008152600401613dcf90615552565b60405180910390fd5b613de460008383612dc3565b6001600360008473ffffffffffffffffffffffffffffffffffffffff1673ffffffffffffffffffffffffffffffffffffffff1681526020019081526020016000206000828254613e3491906159e0565b92505081905550816002600083815260200190815260200160002060006101000a81548173ffffffffffffffffffffffffffffffffffffffff021916908373ffffffffffffffffffffffffffffffffffffffff160217905550808273ffffffffffffffffffffffffffffffffffffffff16600073ffffffffffffffffffffffffffffffffffffffff167fddf252ad1be2c89b69c2b068fc378daa952ba7f163c4a11628f55a4df523b3ef60405160405180910390a4613ef560008383612e1b565b5050565b505050565b6008805490506009600083815260200190815260200160002081905550600881908060018154018082558091505060019003906000526020600020016000909190919091505550565b60006001613f54846112d0565b613f5e9190615a67565b9050600060076000848152602001908152602001600020549050818114614043576000600660008673ffffffffffffffffffffffffffffffffffffffff1673ffffffffffffffffffffffffffffffffffffffff168152602001908152602001600020600084815260200190815260200160002054905080600660008773ffffffffffffffffffffffffffffffffffffffff1673ffffffffffffffffffffffffffffffffffffffff168152602001908152602001600020600084815260200190815260200160002081905550816007600083815260200190815260200160002081905550505b6007600084815260200190815260200160002060009055600660008573ffffffffffffffffffffffffffffffffffffffff1673ffffffffffffffffffffffffffffffffffffffff16815260200190815260200160002060008381526020019081526020016000206000905550505050565b600060016008805490506140c89190615a67565b905060006009600084815260200190815260200160002054905060006008838154811061411e577f4e487b7100000000000000000000000000000000000000000000000000000000600052603260045260246000fd5b906000526020600020015490508060088381548110614166577f4e487b7100000000000000000000000000000000000000000000000000000000600052603260045260246000fd5b9060005260206000200181905550816009600083815260200190815260200160002081905550600960008581526020019081526020016000206000905560088054806141db577f4e487b7100000000000000000000000000000000000000000000000000000000600052603160045260246000fd5b6001900381819060005260206000200160009055905550505050565b6000614202836112d0565b905081600660008573ffffffffffffffffffffffffffffffffffffffff1673ffffffffffffffffffffffffffffffffffffffff168152602001908152602001600020600083815260200190815260200160002081905550806007600084815260200190815260200160002081905550505050565b600073ffffffffffffffffffffffffffffffffffffffff168373ffffffffffffffffffffffffffffffffffffffff1614156142c6576142c3613b3982600e613b0b9092919063ffffffff16565b50505b600073ffffffffffffffffffffffffffffffffffffffff168273ffffffffffffffffffffffffffffffffffffffff16141561431657614313613af582600e613b0b9092919063ffffffff16565b50505b6143316143228461116e565b61432b8461116e565b83612ef0565b505050565b505050565b6000806000846000018054905090506000614355866127a9565b90506000821180156143d1575043866000016001846143749190615a67565b815481106143ab577f4e487b7100000000000000000000000000000000000000000000000000000000600052603260045260246000fd5b9060005260206000200160000160009054906101000a900463ffffffff1663ffffffff16145b15614487576143df85614589565b866000016001846143f09190615a67565b81548110614427577f4e487b7100000000000000000000000000000000000000000000000000000000600052603260045260246000fd5b9060005260206000200160000160046101000a8154817bffffffffffffffffffffffffffffffffffffffffffffffffffffffff02191690837bffffffffffffffffffffffffffffffffffffffffffffffffffffffff16021790555061457a565b85600001604051806040016040528061449f436145f4565b63ffffffff1681526020016144b388614589565b7bffffffffffffffffffffffffffffffffffffffffffffffffffffffff168152509080600181540180825580915050600190039060005260206000200160009091909190915060008201518160000160006101000a81548163ffffffff021916908363ffffffff16021790555060208201518160000160046101000a8154817bffffffffffffffffffffffffffffffffffffffffffffffffffffffff02191690837bffffffffffffffffffffffffffffffffffffffffffffffffffffffff16021790555050505b80859350935050509250929050565b60007bffffffffffffffffffffffffffffffffffffffffffffffffffffffff80168211156145ec576040517f08c379a00000000000000000000000000000000000000000000000000000000081526004016145e3906157b2565b60405180910390fd5b819050919050565b600063ffffffff801682111561463f576040517f08c379a000000000000000000000000000000000000000000000000000000000815260040161463690615872565b60405180910390fd5b819050919050565b82805461465390615b7a565b90600052602060002090601f01602090048101928261467557600085556146bc565b82601f1061468e57805160ff19168380011785556146bc565b828001600101855582156146bc579182015b828111156146bb5782518255916020019190600101906146a0565b5b5090506146c9919061470d565b5090565b5080546146d990615b7a565b6000825580601f106146eb575061470a565b601f016020900490600052602060002090810190614709919061470d565b5b50565b5b8082111561472657600081600090555060010161470e565b5090565b600061473d6147388461593b565b615916565b90508281526020810184848401111561475557600080fd5b614760848285615b38565b509392505050565b600061477b6147768461596c565b615916565b90508281526020810184848401111561479357600080fd5b61479e848285615b38565b509392505050565b6000813590506147b581616685565b92915050565b6000813590506147ca8161669c565b92915050565b6000813590506147df816166b3565b92915050565b6000813590506147f4816166ca565b92915050565b600081359050614809816166e1565b92915050565b60008151905061481e816166e1565b92915050565b600082601f83011261483557600080fd5b813561484584826020860161472a565b91505092915050565b600082601f83011261485f57600080fd5b813561486f848260208601614768565b91505092915050565b600081359050614887816166f8565b92915050565b60008135905061489c8161670f565b92915050565b6000602082840312156148b457600080fd5b60006148c2848285016147a6565b91505092915050565b6000602082840312156148dd57600080fd5b60006148eb848285016147bb565b91505092915050565b6000806040838503121561490757600080fd5b6000614915858286016147a6565b9250506020614926858286016147a6565b9150509250929050565b60008060006060848603121561494557600080fd5b6000614953868287016147a6565b9350506020614964868287016147a6565b925050604061497586828701614878565b9150509250925092565b6000806000806080858703121561499557600080fd5b60006149a3878288016147a6565b94505060206149b4878288016147a6565b93505060406149c587828801614878565b925050606085013567ffffffffffffffff8111156149e257600080fd5b6149ee87828801614824565b91505092959194509250565b60008060408385031215614a0d57600080fd5b6000614a1b858286016147a6565b9250506020614a2c858286016147d0565b9150509250929050565b60008060408385031215614a4957600080fd5b6000614a57858286016147a6565b925050602083013567ffffffffffffffff811115614a7457600080fd5b614a808582860161484e565b9150509250929050565b60008060408385031215614a9d57600080fd5b6000614aab858286016147a6565b9250506020614abc85828601614878565b9150509250929050565b60008060008060008060c08789031215614adf57600080fd5b6000614aed89828a016147a6565b9650506020614afe89828a01614878565b9550506040614b0f89828a01614878565b9450506060614b2089828a0161488d565b9350506080614b3189828a016147e5565b92505060a0614b4289828a016147e5565b9150509295509295509295565b600060208284031215614b6157600080fd5b6000614b6f848285016147fa565b91505092915050565b600060208284031215614b8a57600080fd5b6000614b988482850161480f565b91505092915050565b600060208284031215614bb357600080fd5b600082013567ffffffffffffffff811115614bcd57600080fd5b614bd98482850161484e565b91505092915050565b600060208284031215614bf457600080fd5b6000614c0284828501614878565b91505092915050565b60008060408385031215614c1e57600080fd5b6000614c2c85828601614878565b9250506020614c3d858286016147bb565b9150509250929050565b614c5081615a9b565b82525050565b614c5f81615abf565b82525050565b614c6e81615acb565b82525050565b614c85614c8082615acb565b615c26565b82525050565b6000614c968261599d565b614ca081856159b3565b9350614cb0818560208601615b47565b614cb981615d1d565b840191505092915050565b6000614ccf826159a8565b614cd981856159c4565b9350614ce9818560208601615b47565b614cf281615d1d565b840191505092915050565b6000614d08826159a8565b614d1281856159d5565b9350614d22818560208601615b47565b80840191505092915050565b6000614d3b6018836159c4565b9150614d4682615d2e565b602082019050919050565b6000614d5e6014836159c4565b9150614d6982615d57565b602082019050919050565b6000614d816014836159c4565b9150614d8c82615d80565b602082019050919050565b6000614da4601f836159c4565b9150614daf82615da9565b602082019050919050565b6000614dc7602b836159c4565b9150614dd282615dd2565b604082019050919050565b6000614dea6032836159c4565b9150614df582615e21565b604082019050919050565b6000614e0d6026836159c4565b9150614e1882615e70565b604082019050919050565b6000614e306025836159c4565b9150614e3b82615ebf565b604082019050919050565b6000614e53601c836159c4565b9150614e5e82615f0e565b602082019050919050565b6000614e766002836159d5565b9150614e8182615f37565b600282019050919050565b6000614e996024836159c4565b9150614ea482615f60565b604082019050919050565b6000614ebc6019836159c4565b9150614ec782615faf565b602082019050919050565b6000614edf6022836159c4565b9150614eea82615fd8565b604082019050919050565b6000614f026022836159c4565b9150614f0d82616027565b604082019050919050565b6000614f25602c836159c4565b9150614f3082616076565b604082019050919050565b6000614f486020836159c4565b9150614f53826160c5565b602082019050919050565b6000614f6b6010836159c4565b9150614f76826160ee565b602082019050919050565b6000614f8e6018836159c4565b9150614f9982616117565b602082019050919050565b6000614fb16038836159c4565b9150614fbc82616140565b604082019050919050565b6000614fd4602a836159c4565b9150614fdf8261618f565b604082019050919050565b6000614ff76029836159c4565b9150615002826161de565b604082019050919050565b600061501a602e836159c4565b91506150258261622d565b604082019050919050565b600061503d601a836159c4565b91506150488261627c565b602082019050919050565b60006150606022836159c4565b915061506b826162a5565b604082019050919050565b60006150836020836159c4565b915061508e826162f4565b602082019050919050565b60006150a66031836159c4565b91506150b18261631d565b604082019050919050565b60006150c9602c836159c4565b91506150d48261636c565b604082019050919050565b60006150ec6020836159c4565b91506150f7826163bb565b602082019050919050565b600061510f6027836159c4565b915061511a826163e4565b604082019050919050565b6000615132602f836159c4565b915061513d82616433565b604082019050919050565b6000615155601c836159c4565b915061516082616482565b602082019050919050565b60006151786028836159c4565b9150615183826164ab565b604082019050919050565b600061519b6021836159c4565b91506151a6826164fa565b604082019050919050565b60006151be6031836159c4565b91506151c982616549565b604082019050919050565b60006151e16026836159c4565b91506151ec82616598565b604082019050919050565b6000615204602c836159c4565b915061520f826165e7565b604082019050919050565b60006152276030836159c4565b915061523282616636565b604082019050919050565b61524681615b21565b82525050565b61525581615b2b565b82525050565b60006152678285614cfd565b91506152738284614cfd565b91508190509392505050565b600061528a82614e69565b91506152968285614c74565b6020820191506152a68284614c74565b6020820191508190509392505050565b60006020820190506152cb6000830184614c47565b92915050565b60006080820190506152e66000830187614c47565b6152f36020830186614c47565b615300604083018561523d565b81810360608301526153128184614c8b565b905095945050505050565b60006020820190506153326000830184614c56565b92915050565b600060208201905061534d6000830184614c65565b92915050565b60006080820190506153686000830187614c65565b6153756020830186614c47565b615382604083018561523d565b61538f606083018461523d565b95945050505050565b600060a0820190506153ad6000830188614c65565b6153ba6020830187614c65565b6153c76040830186614c65565b6153d4606083018561523d565b6153e16080830184614c47565b9695505050505050565b60006080820190506154006000830187614c65565b61540d602083018661524c565b61541a6040830185614c65565b6154276060830184614c65565b95945050505050565b6000602082019050818103600083015261544a8184614cc4565b905092915050565b6000602082019050818103600083015261546b81614d2e565b9050919050565b6000602082019050818103600083015261548b81614d51565b9050919050565b600060208201905081810360008301526154ab81614d74565b9050919050565b600060208201905081810360008301526154cb81614d97565b9050919050565b600060208201905081810360008301526154eb81614dba565b9050919050565b6000602082019050818103600083015261550b81614ddd565b9050919050565b6000602082019050818103600083015261552b81614e00565b9050919050565b6000602082019050818103600083015261554b81614e23565b9050919050565b6000602082019050818103600083015261556b81614e46565b9050919050565b6000602082019050818103600083015261558b81614e8c565b9050919050565b600060208201905081810360008301526155ab81614eaf565b9050919050565b600060208201905081810360008301526155cb81614ed2565b9050919050565b600060208201905081810360008301526155eb81614ef5565b9050919050565b6000602082019050818103600083015261560b81614f18565b9050919050565b6000602082019050818103600083015261562b81614f3b565b9050919050565b6000602082019050818103600083015261564b81614f5e565b9050919050565b6000602082019050818103600083015261566b81614f81565b9050919050565b6000602082019050818103600083015261568b81614fa4565b9050919050565b600060208201905081810360008301526156ab81614fc7565b9050919050565b600060208201905081810360008301526156cb81614fea565b9050919050565b600060208201905081810360008301526156eb8161500d565b9050919050565b6000602082019050818103600083015261570b81615030565b9050919050565b6000602082019050818103600083015261572b81615053565b9050919050565b6000602082019050818103600083015261574b81615076565b9050919050565b6000602082019050818103600083015261576b81615099565b9050919050565b6000602082019050818103600083015261578b816150bc565b9050919050565b600060208201905081810360008301526157ab816150df565b9050919050565b600060208201905081810360008301526157cb81615102565b9050919050565b600060208201905081810360008301526157eb81615125565b9050919050565b6000602082019050818103600083015261580b81615148565b9050919050565b6000602082019050818103600083015261582b8161516b565b9050919050565b6000602082019050818103600083015261584b8161518e565b9050919050565b6000602082019050818103600083015261586b816151b1565b9050919050565b6000602082019050818103600083015261588b816151d4565b9050919050565b600060208201905081810360008301526158ab816151f7565b9050919050565b600060208201905081810360008301526158cb8161521a565b9050919050565b60006020820190506158e7600083018461523d565b92915050565b6000604082019050615902600083018561523d565b61590f602083018461523d565b9392505050565b6000615920615931565b905061592c8282615bac565b919050565b6000604051905090565b600067ffffffffffffffff82111561595657615955615cee565b5b61595f82615d1d565b9050602081019050919050565b600067ffffffffffffffff82111561598757615986615cee565b5b61599082615d1d565b9050602081019050919050565b600081519050919050565b600081519050919050565b600082825260208201905092915050565b600082825260208201905092915050565b600081905092915050565b60006159eb82615b21565b91506159f683615b21565b9250827fffffffffffffffffffffffffffffffffffffffffffffffffffffffffffffffff03821115615a2b57615a2a615c61565b5b828201905092915050565b6000615a4182615b21565b9150615a4c83615b21565b925082615a5c57615a5b615c90565b5b828204905092915050565b6000615a7282615b21565b9150615a7d83615b21565b925082821015615a9057615a8f615c61565b5b828203905092915050565b6000615aa682615b01565b9050919050565b6000615ab882615b01565b9050919050565b60008115159050919050565b6000819050919050565b60007fffffffff0000000000000000000000000000000000000000000000000000000082169050919050565b600073ffffffffffffffffffffffffffffffffffffffff82169050919050565b6000819050919050565b600060ff82169050919050565b82818337600083830152505050565b60005b83811015615b65578082015181840152602081019050615b4a565b83811115615b74576000848401525b50505050565b60006002820490506001821680615b9257607f821691505b60208210811415615ba657615ba5615cbf565b5b50919050565b615bb582615d1d565b810181811067ffffffffffffffff82111715615bd457615bd3615cee565b5b80604052505050565b6000615be882615b21565b91507fffffffffffffffffffffffffffffffffffffffffffffffffffffffffffffffff821415615c1b57615c1a615c61565b5b600182019050919050565b6000819050919050565b6000615c3b82615b21565b9150615c4683615b21565b925082615c5657615c55615c90565b5b828206905092915050565b7f4e487b7100000000000000000000000000000000000000000000000000000000600052601160045260246000fd5b7f4e487b7100000000000000000000000000000000000000000000000000000000600052601260045260246000fd5b7f4e487b7100000000000000000000000000000000000000000000000000000000600052602260045260246000fd5b7f4e487b7100000000000000000000000000000000000000000000000000000000600052604160045260246000fd5b6000601f19601f8301169050919050565b7f45434453413a20696e76616c6964207369676e61747572650000000000000000600082015250565b7f5061757361626c653a206e6f7420706175736564000000000000000000000000600082015250565b7f566f7465733a20696e76616c6964206e6f6e6365000000000000000000000000600082015250565b7f45434453413a20696e76616c6964207369676e6174757265206c656e67746800600082015250565b7f455243373231456e756d657261626c653a206f776e657220696e646578206f7560008201527f74206f6620626f756e6473000000000000000000000000000000000000000000602082015250565b7f4552433732313a207472616e7366657220746f206e6f6e20455243373231526560008201527f63656976657220696d706c656d656e7465720000000000000000000000000000602082015250565b7f4f776e61626c653a206e6577206f776e657220697320746865207a65726f206160008201527f6464726573730000000000000000000000000000000000000000000000000000602082015250565b7f4552433732313a207472616e736665722066726f6d20696e636f72726563742060008201527f6f776e6572000000000000000000000000000000000000000000000000000000602082015250565b7f4552433732313a20746f6b656e20616c7265616479206d696e74656400000000600082015250565b7f1901000000000000000000000000000000000000000000000000000000000000600082015250565b7f4552433732313a207472616e7366657220746f20746865207a65726f2061646460008201527f7265737300000000000000000000000000000000000000000000000000000000602082015250565b7f4552433732313a20617070726f766520746f2063616c6c657200000000000000600082015250565b7f506c65617365207061792074686520636f72726563742073616c65732070726960008201527f6365000000000000000000000000000000000000000000000000000000000000602082015250565b7f45434453413a20696e76616c6964207369676e6174757265202773272076616c60008201527f7565000000000000000000000000000000000000000000000000000000000000602082015250565b7f4552433732313a206f70657261746f7220717565727920666f72206e6f6e657860008201527f697374656e7420746f6b656e0000000000000000000000000000000000000000602082015250565b7f436865636b706f696e74733a20626c6f636b206e6f7420796574206d696e6564600082015250565b7f5061757361626c653a2070617573656400000000000000000000000000000000600082015250565b7f566f7465733a207369676e617475726520657870697265640000000000000000600082015250565b7f4552433732313a20617070726f76652063616c6c6572206973206e6f74206f7760008201527f6e6572206e6f7220617070726f76656420666f7220616c6c0000000000000000602082015250565b7f4552433732313a2062616c616e636520717565727920666f7220746865207a6560008201527f726f206164647265737300000000000000000000000000000000000000000000602082015250565b7f4552433732313a206f776e657220717565727920666f72206e6f6e657869737460008201527f656e7420746f6b656e0000000000000000000000000000000000000000000000602082015250565b7f45524337323155524953746f726167653a2055524920736574206f66206e6f6e60008201527f6578697374656e7420746f6b656e000000000000000000000000000000000000602082015250565b7f566f7465733a20626c6f636b206e6f7420796574206d696e6564000000000000600082015250565b7f45434453413a20696e76616c6964207369676e6174757265202776272076616c60008201527f7565000000000000000000000000000000000000000000000000000000000000602082015250565b7f4552433732313a206d696e7420746f20746865207a65726f2061646472657373600082015250565b7f45524337323155524953746f726167653a2055524920717565727920666f722060008201527f6e6f6e6578697374656e7420746f6b656e000000000000000000000000000000602082015250565b7f4552433732313a20617070726f76656420717565727920666f72206e6f6e657860008201527f697374656e7420746f6b656e0000000000000000000000000000000000000000602082015250565b7f4f776e61626c653a2063616c6c6572206973206e6f7420746865206f776e6572600082015250565b7f53616665436173743a2076616c756520646f65736e27742066697420696e203260008201527f3234206269747300000000000000000000000000000000000000000000000000602082015250565b7f4552433732314d657461646174613a2055524920717565727920666f72206e6f60008201527f6e6578697374656e7420746f6b656e0000000000000000000000000000000000602082015250565b7f4d617820737570706c79206f66204e4654732065786861757374656400000000600082015250565b7f43616e2774207769746864726177206d6f7265207468616e2063757272656e7460008201527f2062616c616e6365000000000000000000000000000000000000000000000000602082015250565b7f4552433732313a20617070726f76616c20746f2063757272656e74206f776e6560008201527f7200000000000000000000000000000000000000000000000000000000000000602082015250565b7f4552433732313a207472616e736665722063616c6c6572206973206e6f74206f60008201527f776e6572206e6f7220617070726f766564000000000000000000000000000000602082015250565b7f53616665436173743a2076616c756520646f65736e27742066697420696e203360008201527f3220626974730000000000000000000000000000000000000000000000000000602082015250565b7f455243373231456e756d657261626c653a20676c6f62616c20696e646578206f60008201527f7574206f6620626f756e64730000000000000000000000000000000000000000602082015250565b7f4552433732314275726e61626c653a2063616c6c6572206973206e6f74206f7760008201527f6e6572206e6f7220617070726f76656400000000000000000000000000000000602082015250565b61668e81615a9b565b811461669957600080fd5b50565b6166a581615aad565b81146166b057600080fd5b50565b6166bc81615abf565b81146166c757600080fd5b50565b6166d381615acb565b81146166de57600080fd5b50565b6166ea81615ad5565b81146166f557600080fd5b50565b61670181615b21565b811461670c57600080fd5b50565b61671881615b2b565b811461672357600080fd5b5056fea26469706673582212209082762519a07b0fa07f01ff37844dc56f7d3dd261a05506b21cee3f9e930e0f64736f6c63430008040033",
  "linkReferences": {},
  "deployedLinkReferences": {}
}