{
  "_format": "hh-sol-artifact-1",
  "contractName": "MarketplaceV2",
  "sourceName": "contracts/MarketplaceV2.sol",
  "abi": [
    {
      "inputs": [
        {
          "internalType": "uint256",
          "name": "_feePercent",
          "type": "uint256"
        }
      ],
      "stateMutability": "nonpayable",
      "type": "constructor"
    },
    {
      "anonymous": false,
      "inputs": [
        {
          "indexed": false,
          "internalType": "uint256",
          "name": "itemId",
          "type": "uint256"
        },
        {
          "indexed": true,
          "internalType": "address",
          "name": "nft",
          "type": "address"
        },
        {
          "indexed": false,
          "internalType": "uint256",
          "name": "tokenId",
          "type": "uint256"
        },
        {
          "indexed": false,
          "internalType": "uint256",
          "name": "price",
          "type": "uint256"
        },
        {
          "indexed": true,
          "internalType": "address",
          "name": "seller",
          "type": "address"
        }
      ],
      "name": "ItemListed",
      "type": "event"
    },
    {
      "anonymous": false,
      "inputs": [
        {
          "indexed": false,
          "internalType": "uint256",
          "name": "itemId",
          "type": "uint256"
        },
        {
          "indexed": true,
          "internalType": "address",
          "name": "nft",
          "type": "address"
        },
        {
          "indexed": false,
          "internalType": "uint256",
          "name": "tokenId",
          "type": "uint256"
        },
        {
          "indexed": false,
          "internalType": "uint256",
          "name": "price",
          "type": "uint256"
        },
        {
          "indexed": true,
          "internalType": "address",
          "name": "seller",
          "type": "address"
        },
        {
          "indexed": true,
          "internalType": "address",
          "name": "buyer",
          "type": "address"
        }
      ],
      "name": "ItemPurchased",
      "type": "event"
    },
    {
      "inputs": [],
      "name": "feeAccount",
      "outputs": [
        {
          "internalType": "address payable",
          "name": "",
          "type": "address"
        }
      ],
      "stateMutability": "view",
      "type": "function"
    },
    {
      "inputs": [
        {
          "internalType": "uint256",
          "name": "_itemId",
          "type": "uint256"
        }
      ],
      "name": "getTotalPrice",
      "outputs": [
        {
          "internalType": "uint256",
          "name": "",
          "type": "uint256"
        }
      ],
      "stateMutability": "view",
      "type": "function"
    },
    {
      "inputs": [],
      "name": "itemCount",
      "outputs": [
        {
          "internalType": "uint256",
          "name": "",
          "type": "uint256"
        }
      ],
      "stateMutability": "view",
      "type": "function"
    },
    {
      "inputs": [
        {
          "internalType": "uint256",
          "name": "",
          "type": "uint256"
        }
      ],
      "name": "items",
      "outputs": [
        {
          "internalType": "contract IERC721",
          "name": "nft",
          "type": "address"
        },
        {
          "internalType": "uint256",
          "name": "id",
          "type": "uint256"
        },
        {
          "internalType": "uint256",
          "name": "tokenId",
          "type": "uint256"
        },
        {
          "internalType": "uint256",
          "name": "price",
          "type": "uint256"
        },
        {
          "internalType": "address payable",
          "name": "seller",
          "type": "address"
        },
        {
          "internalType": "bool",
          "name": "sold",
          "type": "bool"
        }
      ],
      "stateMutability": "view",
      "type": "function"
    },
    {
      "inputs": [
        {
          "internalType": "contract IERC721",
          "name": "_nft",
          "type": "address"
        },
        {
          "internalType": "uint256",
          "name": "_tokenId",
          "type": "uint256"
        },
        {
          "internalType": "uint256",
          "name": "_price",
          "type": "uint256"
        }
      ],
      "name": "listItem",
      "outputs": [],
      "stateMutability": "nonpayable",
      "type": "function"
    },
    {
      "inputs": [
        {
          "internalType": "uint256",
          "name": "_itemId",
          "type": "uint256"
        }
      ],
      "name": "purchaseItem",
      "outputs": [],
      "stateMutability": "payable",
      "type": "function"
    },
    {
      "inputs": [
        {
          "internalType": "uint256",
          "name": "_itemId",
          "type": "uint256"
        }
      ],
      "name": "unlistItem",
      "outputs": [],
      "stateMutability": "nonpayable",
      "type": "function"
    }
  ],
  "bytecode": "0x60c060405234801561001057600080fd5b50604051620013eb380380620013eb83398181016040528101906100349190610096565b60016000819055503373ffffffffffffffffffffffffffffffffffffffff1660808173ffffffffffffffffffffffffffffffffffffffff1660601b815250508060a08181525050506100e0565b600081519050610090816100c9565b92915050565b6000602082840312156100a857600080fd5b60006100b684828501610081565b91505092915050565b6000819050919050565b6100d2816100bf565b81146100dd57600080fd5b50565b60805160601c60a0516112db6200011060003960006106cf0152600081816103b101526108f501526112db6000f3fe6080604052600436106100705760003560e01c806389bfd38f1161004e57806389bfd38f146100f4578063bfb231d21461011d578063ca7dd3751461015f578063d38ea5bf1461019c57610070565b80635a599da81461007557806365e17c9d1461009e5780636bfb0d01146100c9575b600080fd5b34801561008157600080fd5b5061009c60048036038101906100979190610b77565b6101b8565b005b3480156100aa57600080fd5b506100b36103af565b6040516100c09190610ccc565b60405180910390f35b3480156100d557600080fd5b506100de6103d3565b6040516100eb9190610e76565b60405180910390f35b34801561010057600080fd5b5061011b60048036038101906101169190610b28565b6103d9565b005b34801561012957600080fd5b50610144600480360381019061013f9190610b77565b610640565b60405161015696959493929190610d55565b60405180910390f35b34801561016b57600080fd5b5061018660048036038101906101819190610b77565b6106c9565b6040516101939190610e76565b60405180910390f35b6101b660048036038101906101b19190610b77565b61072c565b005b600260005414156101fe576040517f08c379a00000000000000000000000000000000000000000000000000000000081526004016101f590610e36565b60405180910390fd5b600260008190555060008111610249576040517f08c379a000000000000000000000000000000000000000000000000000000000815260040161024090610db6565b60405180910390fd5b600015156002600083815260200190815260200160002060040160149054906101000a900460ff161515146102b3576040517f08c379a00000000000000000000000000000000000000000000000000000000081526004016102aa90610e16565b60405180910390fd5b6002600082815260200190815260200160002060000160009054906101000a900473ffffffffffffffffffffffffffffffffffffffff1673ffffffffffffffffffffffffffffffffffffffff166342842e0e306002600085815260200190815260200160002060040160009054906101000a900473ffffffffffffffffffffffffffffffffffffffff1660026000868152602001908152602001600020600201546040518463ffffffff1660e01b815260040161037293929190610ce7565b600060405180830381600087803b15801561038c57600080fd5b505af11580156103a0573d6000803e3d6000fd5b50505050600160008190555050565b7f000000000000000000000000000000000000000000000000000000000000000081565b60015481565b6002600054141561041f576040517f08c379a000000000000000000000000000000000000000000000000000000000815260040161041690610e36565b60405180910390fd5b60026000819055506000811161046a576040517f08c379a000000000000000000000000000000000000000000000000000000000815260040161046190610e56565b60405180910390fd5b6001600081548092919061047d906110b4565b91905055506040518060c001604052808473ffffffffffffffffffffffffffffffffffffffff16815260200160015481526020018381526020018281526020013373ffffffffffffffffffffffffffffffffffffffff1681526020016000151581525060026000600154815260200190815260200160002060008201518160000160006101000a81548173ffffffffffffffffffffffffffffffffffffffff021916908373ffffffffffffffffffffffffffffffffffffffff16021790555060208201518160010155604082015181600201556060820151816003015560808201518160040160006101000a81548173ffffffffffffffffffffffffffffffffffffffff021916908373ffffffffffffffffffffffffffffffffffffffff16021790555060a08201518160040160146101000a81548160ff0219169083151502179055509050508273ffffffffffffffffffffffffffffffffffffffff166342842e0e3330856040518463ffffffff1660e01b815260040161060193929190610d1e565b600060405180830381600087803b15801561061b57600080fd5b505af115801561062f573d6000803e3d6000fd5b505050506001600081905550505050565b60026020528060005260406000206000915090508060000160009054906101000a900473ffffffffffffffffffffffffffffffffffffffff16908060010154908060020154908060030154908060040160009054906101000a900473ffffffffffffffffffffffffffffffffffffffff16908060040160149054906101000a900460ff16905086565b600060647f000000000000000000000000000000000000000000000000000000000000000060646106fa9190610ed9565b600260008581526020019081526020016000206003015461071b9190610f60565b6107259190610f2f565b9050919050565b60026000541415610772576040517f08c379a000000000000000000000000000000000000000000000000000000000815260040161076990610e36565b60405180910390fd5b60026000819055506000610785826106c9565b905060006002600084815260200190815260200160002090506000831180156107b057506001548311155b6107ef576040517f08c379a00000000000000000000000000000000000000000000000000000000081526004016107e690610df6565b60405180910390fd5b81341015610832576040517f08c379a000000000000000000000000000000000000000000000000000000000815260040161082990610dd6565b60405180910390fd5b8060040160149054906101000a900460ff1615610884576040517f08c379a000000000000000000000000000000000000000000000000000000000815260040161087b90610e16565b60405180910390fd5b8060040160009054906101000a900473ffffffffffffffffffffffffffffffffffffffff1673ffffffffffffffffffffffffffffffffffffffff166108fc82600301549081150290604051600060405180830381858888f193505050501580156108f2573d6000803e3d6000fd5b507f000000000000000000000000000000000000000000000000000000000000000073ffffffffffffffffffffffffffffffffffffffff166108fc82600301548461093d9190610fba565b9081150290604051600060405180830381858888f19350505050158015610968573d6000803e3d6000fd5b5060018160040160146101000a81548160ff0219169083151502179055508060000160009054906101000a900473ffffffffffffffffffffffffffffffffffffffff1673ffffffffffffffffffffffffffffffffffffffff166323b872dd303384600201546040518463ffffffff1660e01b81526004016109eb93929190610d1e565b600060405180830381600087803b158015610a0557600080fd5b505af1158015610a19573d6000803e3d6000fd5b505050503373ffffffffffffffffffffffffffffffffffffffff168160040160009054906101000a900473ffffffffffffffffffffffffffffffffffffffff1673ffffffffffffffffffffffffffffffffffffffff168260000160009054906101000a900473ffffffffffffffffffffffffffffffffffffffff1673ffffffffffffffffffffffffffffffffffffffff167ffbc566d961a0431503c5539f8167bc8c35b193b78ec7f28fa6a2047a62687f36846002015485600201548660030154604051610ae993929190610e91565b60405180910390a45050600160008190555050565b600081359050610b0d81611277565b92915050565b600081359050610b228161128e565b92915050565b600080600060608486031215610b3d57600080fd5b6000610b4b86828701610afe565b9350506020610b5c86828701610b13565b9250506040610b6d86828701610b13565b9150509250925092565b600060208284031215610b8957600080fd5b6000610b9784828501610b13565b91505092915050565b610ba98161105a565b82525050565b610bb881611000565b82525050565b610bc781610fee565b82525050565b610bd681611012565b82525050565b610be58161106c565b82525050565b6000610bf8601e83610ec8565b9150610c038261115b565b602082019050919050565b6000610c1b603183610ec8565b9150610c2682611184565b604082019050919050565b6000610c3e601283610ec8565b9150610c49826111d3565b602082019050919050565b6000610c61601a83610ec8565b9150610c6c826111fc565b602082019050919050565b6000610c84601f83610ec8565b9150610c8f82611225565b602082019050919050565b6000610ca7601c83610ec8565b9150610cb28261124e565b602082019050919050565b610cc681611050565b82525050565b6000602082019050610ce16000830184610baf565b92915050565b6000606082019050610cfc6000830186610bbe565b610d096020830185610ba0565b610d166040830184610cbd565b949350505050565b6000606082019050610d336000830186610bbe565b610d406020830185610bbe565b610d4d6040830184610cbd565b949350505050565b600060c082019050610d6a6000830189610bdc565b610d776020830188610cbd565b610d846040830187610cbd565b610d916060830186610cbd565b610d9e6080830185610baf565b610dab60a0830184610bcd565b979650505050505050565b60006020820190508181036000830152610dcf81610beb565b9050919050565b60006020820190508181036000830152610def81610c0e565b9050919050565b60006020820190508181036000830152610e0f81610c31565b9050919050565b60006020820190508181036000830152610e2f81610c54565b9050919050565b60006020820190508181036000830152610e4f81610c77565b9050919050565b60006020820190508181036000830152610e6f81610c9a565b9050919050565b6000602082019050610e8b6000830184610cbd565b92915050565b6000606082019050610ea66000830186610cbd565b610eb36020830185610cbd565b610ec06040830184610cbd565b949350505050565b600082825260208201905092915050565b6000610ee482611050565b9150610eef83611050565b9250827fffffffffffffffffffffffffffffffffffffffffffffffffffffffffffffffff03821115610f2457610f236110fd565b5b828201905092915050565b6000610f3a82611050565b9150610f4583611050565b925082610f5557610f5461112c565b5b828204905092915050565b6000610f6b82611050565b9150610f7683611050565b9250817fffffffffffffffffffffffffffffffffffffffffffffffffffffffffffffffff0483118215151615610faf57610fae6110fd565b5b828202905092915050565b6000610fc582611050565b9150610fd083611050565b925082821015610fe357610fe26110fd565b5b828203905092915050565b6000610ff982611030565b9050919050565b600061100b82611030565b9050919050565b60008115159050919050565b600061102982610fee565b9050919050565b600073ffffffffffffffffffffffffffffffffffffffff82169050919050565b6000819050919050565b600061106582611090565b9050919050565b60006110778261107e565b9050919050565b600061108982611030565b9050919050565b600061109b826110a2565b9050919050565b60006110ad82611030565b9050919050565b60006110bf82611050565b91507fffffffffffffffffffffffffffffffffffffffffffffffffffffffffffffffff8214156110f2576110f16110fd565b5b600182019050919050565b7f4e487b7100000000000000000000000000000000000000000000000000000000600052601160045260246000fd5b7f4e487b7100000000000000000000000000000000000000000000000000000000600052601260045260246000fd5b7f4974656d204944206d7573742062652067726561746572207468616e20300000600082015250565b7f4e6f7420656e6f7567682045544820746f20636f766572206974656d2070726960008201527f636520616e64206d61726b657420666565000000000000000000000000000000602082015250565b7f4974656d20646f65736e27742065786973740000000000000000000000000000600082015250565b7f4974656d2068617320616c7265616479206265656e20736f6c64000000000000600082015250565b7f5265656e7472616e637947756172643a207265656e7472616e742063616c6c00600082015250565b7f5072696365206d7573742062652067726561746572207468616e203000000000600082015250565b6112808161101e565b811461128b57600080fd5b50565b61129781611050565b81146112a257600080fd5b5056fea2646970667358221220dd0cfafabadcfd07e2c885b2c6106436fb309fdd8e91466eb58511816f3ef8e964736f6c63430008040033",
  "linkReferences": {},
  "deployedLinkReferences": {}
}