{
  "_format": "hh-sol-artifact-1",
  "contractName": "MarketplaceV2",
  "sourceName": "contracts/MarketplaceV2.sol",
  "abi": [
    {
      "inputs": [
        {
          "internalType": "uint256",
          "name": "_feePercent",
          "type": "uint256"
        }
      ],
      "stateMutability": "nonpayable",
      "type": "constructor"
    },
    {
      "anonymous": false,
      "inputs": [
        {
          "indexed": false,
          "internalType": "uint256",
          "name": "itemId",
          "type": "uint256"
        },
        {
          "indexed": true,
          "internalType": "address",
          "name": "nft",
          "type": "address"
        },
        {
          "indexed": false,
          "internalType": "uint256",
          "name": "tokenId",
          "type": "uint256"
        },
        {
          "indexed": false,
          "internalType": "uint256",
          "name": "price",
          "type": "uint256"
        },
        {
          "indexed": true,
          "internalType": "address",
          "name": "seller",
          "type": "address"
        }
      ],
      "name": "ItemListed",
      "type": "event"
    },
    {
      "anonymous": false,
      "inputs": [
        {
          "indexed": false,
          "internalType": "uint256",
          "name": "itemId",
          "type": "uint256"
        },
        {
          "indexed": true,
          "internalType": "address",
          "name": "nft",
          "type": "address"
        },
        {
          "indexed": false,
          "internalType": "uint256",
          "name": "tokenId",
          "type": "uint256"
        },
        {
          "indexed": false,
          "internalType": "uint256",
          "name": "price",
          "type": "uint256"
        },
        {
          "indexed": true,
          "internalType": "address",
          "name": "seller",
          "type": "address"
        },
        {
          "indexed": true,
          "internalType": "address",
          "name": "buyer",
          "type": "address"
        }
      ],
      "name": "ItemPurchased",
      "type": "event"
    },
    {
      "anonymous": false,
      "inputs": [
        {
          "indexed": true,
          "internalType": "address",
          "name": "previousOwner",
          "type": "address"
        },
        {
          "indexed": true,
          "internalType": "address",
          "name": "newOwner",
          "type": "address"
        }
      ],
      "name": "OwnershipTransferred",
      "type": "event"
    },
    {
      "inputs": [
        {
          "internalType": "contract IERC721",
          "name": "_nft",
          "type": "address"
        }
      ],
      "name": "approveCollection",
      "outputs": [],
      "stateMutability": "nonpayable",
      "type": "function"
    },
    {
      "inputs": [
        {
          "internalType": "contract IERC721",
          "name": "",
          "type": "address"
        }
      ],
      "name": "approvedCollections",
      "outputs": [
        {
          "internalType": "bool",
          "name": "",
          "type": "bool"
        }
      ],
      "stateMutability": "view",
      "type": "function"
    },
    {
      "inputs": [
        {
          "internalType": "uint256",
          "name": "_itemId",
          "type": "uint256"
        }
      ],
      "name": "getTotalPrice",
      "outputs": [
        {
          "internalType": "uint256",
          "name": "",
          "type": "uint256"
        }
      ],
      "stateMutability": "view",
      "type": "function"
    },
    {
      "inputs": [],
      "name": "itemCount",
      "outputs": [
        {
          "internalType": "uint256",
          "name": "",
          "type": "uint256"
        }
      ],
      "stateMutability": "view",
      "type": "function"
    },
    {
      "inputs": [
        {
          "internalType": "uint256",
          "name": "",
          "type": "uint256"
        }
      ],
      "name": "items",
      "outputs": [
        {
          "internalType": "contract IERC721",
          "name": "nft",
          "type": "address"
        },
        {
          "internalType": "uint256",
          "name": "id",
          "type": "uint256"
        },
        {
          "internalType": "uint256",
          "name": "tokenId",
          "type": "uint256"
        },
        {
          "internalType": "uint256",
          "name": "price",
          "type": "uint256"
        },
        {
          "internalType": "address payable",
          "name": "seller",
          "type": "address"
        },
        {
          "internalType": "bool",
          "name": "sold",
          "type": "bool"
        }
      ],
      "stateMutability": "view",
      "type": "function"
    },
    {
      "inputs": [
        {
          "internalType": "contract IERC721",
          "name": "_nft",
          "type": "address"
        },
        {
          "internalType": "uint256",
          "name": "_tokenId",
          "type": "uint256"
        },
        {
          "internalType": "uint256",
          "name": "_price",
          "type": "uint256"
        }
      ],
      "name": "listItem",
      "outputs": [
        {
          "internalType": "uint256",
          "name": "",
          "type": "uint256"
        }
      ],
      "stateMutability": "nonpayable",
      "type": "function"
    },
    {
      "inputs": [],
      "name": "owner",
      "outputs": [
        {
          "internalType": "address",
          "name": "",
          "type": "address"
        }
      ],
      "stateMutability": "view",
      "type": "function"
    },
    {
      "inputs": [
        {
          "internalType": "uint256",
          "name": "_itemId",
          "type": "uint256"
        }
      ],
      "name": "purchaseItem",
      "outputs": [],
      "stateMutability": "payable",
      "type": "function"
    },
    {
      "inputs": [],
      "name": "renounceOwnership",
      "outputs": [],
      "stateMutability": "nonpayable",
      "type": "function"
    },
    {
      "inputs": [
        {
          "internalType": "address",
          "name": "newOwner",
          "type": "address"
        }
      ],
      "name": "transferOwnership",
      "outputs": [],
      "stateMutability": "nonpayable",
      "type": "function"
    },
    {
      "inputs": [
        {
          "internalType": "uint256",
          "name": "_itemId",
          "type": "uint256"
        }
      ],
      "name": "unlistItem",
      "outputs": [],
      "stateMutability": "nonpayable",
      "type": "function"
    }
  ],
  "bytecode": "0x60a06040523480156200001157600080fd5b5060405162001ca338038062001ca3833981810160405281019062000037919062000153565b60016000819055506200005f620000536200006e60201b60201c565b6200007660201b60201c565b806080818152505050620001a3565b600033905090565b6000600160009054906101000a900473ffffffffffffffffffffffffffffffffffffffff16905081600160006101000a81548173ffffffffffffffffffffffffffffffffffffffff021916908373ffffffffffffffffffffffffffffffffffffffff1602179055508173ffffffffffffffffffffffffffffffffffffffff168173ffffffffffffffffffffffffffffffffffffffff167f8be0079c531659141344cd1fd0a4f28419497f9722a3daafe3b4186f6b6457e060405160405180910390a35050565b6000815190506200014d8162000189565b92915050565b6000602082840312156200016657600080fd5b600062000176848285016200013c565b91505092915050565b6000819050919050565b62000194816200017f565b8114620001a057600080fd5b50565b608051611ae4620001bf6000396000610a860152611ae46000f3fe60806040526004361061009c5760003560e01c80638da5cb5b116100645780638da5cb5b14610172578063bfb231d21461019d578063ca7dd375146101df578063d38ea5bf1461021c578063ec07fb7414610238578063f2fde38b146102755761009c565b80635a599da8146100a15780636aae5cda146100ca5780636bfb0d01146100f3578063715018a61461011e57806389bfd38f14610135575b600080fd5b3480156100ad57600080fd5b506100c860048036038101906100c39190611162565b61029e565b005b3480156100d657600080fd5b506100f160048036038101906100ec91906110ea565b6104df565b005b3480156100ff57600080fd5b50610108610643565b6040516101159190611585565b60405180910390f35b34801561012a57600080fd5b50610133610649565b005b34801561014157600080fd5b5061015c60048036038101906101579190611113565b6106d1565b6040516101699190611585565b60405180910390f35b34801561017e57600080fd5b506101876109cd565b6040516101949190611357565b60405180910390f35b3480156101a957600080fd5b506101c460048036038101906101bf9190611162565b6109f7565b6040516101d6969594939291906113c4565b60405180910390f35b3480156101eb57600080fd5b5061020660048036038101906102019190611162565b610a80565b6040516102139190611585565b60405180910390f35b61023660048036038101906102319190611162565b610ae3565b005b34801561024457600080fd5b5061025f600480360381019061025a91906110ea565b610e9c565b60405161026c91906113a9565b60405180910390f35b34801561028157600080fd5b5061029c600480360381019061029791906110c1565b610ebc565b005b600260005414156102e4576040517f08c379a00000000000000000000000000000000000000000000000000000000081526004016102db90611525565b60405180910390fd5b60026000819055506000811161032f576040517f08c379a000000000000000000000000000000000000000000000000000000000815260040161032690611445565b60405180910390fd5b60006003600083815260200190815260200160002090503373ffffffffffffffffffffffffffffffffffffffff168160040160009054906101000a900473ffffffffffffffffffffffffffffffffffffffff1673ffffffffffffffffffffffffffffffffffffffff16146103d8576040517f08c379a00000000000000000000000000000000000000000000000000000000081526004016103cf906114e5565b60405180910390fd5b8060040160149054906101000a900460ff161561042a576040517f08c379a000000000000000000000000000000000000000000000000000000000815260040161042190611505565b60405180910390fd5b6003600083815260200190815260200160002060000160009054906101000a900473ffffffffffffffffffffffffffffffffffffffff1673ffffffffffffffffffffffffffffffffffffffff166342842e0e303384600201546040518463ffffffff1660e01b81526004016104a193929190611372565b600060405180830381600087803b1580156104bb57600080fd5b505af11580156104cf573d6000803e3d6000fd5b5050505050600160008190555050565b6104e7610fb4565b73ffffffffffffffffffffffffffffffffffffffff166105056109cd565b73ffffffffffffffffffffffffffffffffffffffff161461055b576040517f08c379a0000000000000000000000000000000000000000000000000000000008152600401610552906114c5565b60405180910390fd5b600460008273ffffffffffffffffffffffffffffffffffffffff1673ffffffffffffffffffffffffffffffffffffffff16815260200190815260200160002060009054906101000a900460ff16156105e8576040517f08c379a00000000000000000000000000000000000000000000000000000000081526004016105df90611545565b60405180910390fd5b6001600460008373ffffffffffffffffffffffffffffffffffffffff1673ffffffffffffffffffffffffffffffffffffffff16815260200190815260200160002060006101000a81548160ff02191690831515021790555050565b60025481565b610651610fb4565b73ffffffffffffffffffffffffffffffffffffffff1661066f6109cd565b73ffffffffffffffffffffffffffffffffffffffff16146106c5576040517f08c379a00000000000000000000000000000000000000000000000000000000081526004016106bc906114c5565b60405180910390fd5b6106cf6000610fbc565b565b600060026000541415610719576040517f08c379a000000000000000000000000000000000000000000000000000000000815260040161071090611525565b60405180910390fd5b6002600081905550600460008573ffffffffffffffffffffffffffffffffffffffff1673ffffffffffffffffffffffffffffffffffffffff16815260200190815260200160002060009054906101000a900460ff166107ad576040517f08c379a00000000000000000000000000000000000000000000000000000000081526004016107a490611425565b60405180910390fd5b600082116107f0576040517f08c379a00000000000000000000000000000000000000000000000000000000081526004016107e790611565565b60405180910390fd5b600260008154809291906108039061178d565b91905055506040518060c001604052808573ffffffffffffffffffffffffffffffffffffffff16815260200160025481526020018481526020018381526020013373ffffffffffffffffffffffffffffffffffffffff1681526020016000151581525060036000600254815260200190815260200160002060008201518160000160006101000a81548173ffffffffffffffffffffffffffffffffffffffff021916908373ffffffffffffffffffffffffffffffffffffffff16021790555060208201518160010155604082015181600201556060820151816003015560808201518160040160006101000a81548173ffffffffffffffffffffffffffffffffffffffff021916908373ffffffffffffffffffffffffffffffffffffffff16021790555060a08201518160040160146101000a81548160ff0219169083151502179055509050508373ffffffffffffffffffffffffffffffffffffffff166323b872dd3330866040518463ffffffff1660e01b815260040161098793929190611372565b600060405180830381600087803b1580156109a157600080fd5b505af11580156109b5573d6000803e3d6000fd5b50505050600254905060016000819055509392505050565b6000600160009054906101000a900473ffffffffffffffffffffffffffffffffffffffff16905090565b60036020528060005260406000206000915090508060000160009054906101000a900473ffffffffffffffffffffffffffffffffffffffff16908060010154908060020154908060030154908060040160009054906101000a900473ffffffffffffffffffffffffffffffffffffffff16908060040160149054906101000a900460ff16905086565b600060647f00000000000000000000000000000000000000000000000000000000000000006064610ab191906115e8565b6003600085815260200190815260200160002060030154610ad2919061166f565b610adc919061163e565b9050919050565b60026000541415610b29576040517f08c379a0000000000000000000000000000000000000000000000000000000008152600401610b2090611525565b60405180910390fd5b60026000819055506000610b3c82610a80565b90506000600360008481526020019081526020016000209050600083118015610b6757506002548311155b610ba6576040517f08c379a0000000000000000000000000000000000000000000000000000000008152600401610b9d906114a5565b60405180910390fd5b81341015610be9576040517f08c379a0000000000000000000000000000000000000000000000000000000008152600401610be090611485565b60405180910390fd5b8060040160149054906101000a900460ff1615610c3b576040517f08c379a0000000000000000000000000000000000000000000000000000000008152600401610c3290611505565b60405180910390fd5b8060040160009054906101000a900473ffffffffffffffffffffffffffffffffffffffff1673ffffffffffffffffffffffffffffffffffffffff166108fc82600301549081150290604051600060405180830381858888f19350505050158015610ca9573d6000803e3d6000fd5b50610cb26109cd565b73ffffffffffffffffffffffffffffffffffffffff166108fc826003015484610cdb91906116c9565b9081150290604051600060405180830381858888f19350505050158015610d06573d6000803e3d6000fd5b5060018160040160146101000a81548160ff0219169083151502179055508060000160009054906101000a900473ffffffffffffffffffffffffffffffffffffffff1673ffffffffffffffffffffffffffffffffffffffff166323b872dd303384600201546040518463ffffffff1660e01b8152600401610d8993929190611372565b600060405180830381600087803b158015610da357600080fd5b505af1158015610db7573d6000803e3d6000fd5b505050503373ffffffffffffffffffffffffffffffffffffffff168160040160009054906101000a900473ffffffffffffffffffffffffffffffffffffffff1673ffffffffffffffffffffffffffffffffffffffff168260000160009054906101000a900473ffffffffffffffffffffffffffffffffffffffff1673ffffffffffffffffffffffffffffffffffffffff167ffbc566d961a0431503c5539f8167bc8c35b193b78ec7f28fa6a2047a62687f36846002015485600201548660030154604051610e87939291906115a0565b60405180910390a45050600160008190555050565b60046020528060005260406000206000915054906101000a900460ff1681565b610ec4610fb4565b73ffffffffffffffffffffffffffffffffffffffff16610ee26109cd565b73ffffffffffffffffffffffffffffffffffffffff1614610f38576040517f08c379a0000000000000000000000000000000000000000000000000000000008152600401610f2f906114c5565b60405180910390fd5b600073ffffffffffffffffffffffffffffffffffffffff168173ffffffffffffffffffffffffffffffffffffffff161415610fa8576040517f08c379a0000000000000000000000000000000000000000000000000000000008152600401610f9f90611465565b60405180910390fd5b610fb181610fbc565b50565b600033905090565b6000600160009054906101000a900473ffffffffffffffffffffffffffffffffffffffff16905081600160006101000a81548173ffffffffffffffffffffffffffffffffffffffff021916908373ffffffffffffffffffffffffffffffffffffffff1602179055508173ffffffffffffffffffffffffffffffffffffffff168173ffffffffffffffffffffffffffffffffffffffff167f8be0079c531659141344cd1fd0a4f28419497f9722a3daafe3b4186f6b6457e060405160405180910390a35050565b60008135905061109181611a69565b92915050565b6000813590506110a681611a80565b92915050565b6000813590506110bb81611a97565b92915050565b6000602082840312156110d357600080fd5b60006110e184828501611082565b91505092915050565b6000602082840312156110fc57600080fd5b600061110a84828501611097565b91505092915050565b60008060006060848603121561112857600080fd5b600061113686828701611097565b9350506020611147868287016110ac565b9250506040611158868287016110ac565b9150509250925092565b60006020828403121561117457600080fd5b6000611182848285016110ac565b91505092915050565b6111948161170f565b82525050565b6111a3816116fd565b82525050565b6111b281611721565b82525050565b6111c181611769565b82525050565b60006111d46017836115d7565b91506111df82611834565b602082019050919050565b60006111f7601e836115d7565b91506112028261185d565b602082019050919050565b600061121a6026836115d7565b915061122582611886565b604082019050919050565b600061123d6031836115d7565b9150611248826118d5565b604082019050919050565b60006112606012836115d7565b915061126b82611924565b602082019050919050565b60006112836020836115d7565b915061128e8261194d565b602082019050919050565b60006112a66023836115d7565b91506112b182611976565b604082019050919050565b60006112c9601a836115d7565b91506112d4826119c5565b602082019050919050565b60006112ec601f836115d7565b91506112f7826119ee565b602082019050919050565b600061130f601b836115d7565b915061131a82611a17565b602082019050919050565b6000611332601c836115d7565b915061133d82611a40565b602082019050919050565b6113518161175f565b82525050565b600060208201905061136c600083018461119a565b92915050565b6000606082019050611387600083018661119a565b611394602083018561119a565b6113a16040830184611348565b949350505050565b60006020820190506113be60008301846111a9565b92915050565b600060c0820190506113d960008301896111b8565b6113e66020830188611348565b6113f36040830187611348565b6114006060830186611348565b61140d608083018561118b565b61141a60a08301846111a9565b979650505050505050565b6000602082019050818103600083015261143e816111c7565b9050919050565b6000602082019050818103600083015261145e816111ea565b9050919050565b6000602082019050818103600083015261147e8161120d565b9050919050565b6000602082019050818103600083015261149e81611230565b9050919050565b600060208201905081810360008301526114be81611253565b9050919050565b600060208201905081810360008301526114de81611276565b9050919050565b600060208201905081810360008301526114fe81611299565b9050919050565b6000602082019050818103600083015261151e816112bc565b9050919050565b6000602082019050818103600083015261153e816112df565b9050919050565b6000602082019050818103600083015261155e81611302565b9050919050565b6000602082019050818103600083015261157e81611325565b9050919050565b600060208201905061159a6000830184611348565b92915050565b60006060820190506115b56000830186611348565b6115c26020830185611348565b6115cf6040830184611348565b949350505050565b600082825260208201905092915050565b60006115f38261175f565b91506115fe8361175f565b9250827fffffffffffffffffffffffffffffffffffffffffffffffffffffffffffffffff03821115611633576116326117d6565b5b828201905092915050565b60006116498261175f565b91506116548361175f565b92508261166457611663611805565b5b828204905092915050565b600061167a8261175f565b91506116858361175f565b9250817fffffffffffffffffffffffffffffffffffffffffffffffffffffffffffffffff04831182151516156116be576116bd6117d6565b5b828202905092915050565b60006116d48261175f565b91506116df8361175f565b9250828210156116f2576116f16117d6565b5b828203905092915050565b60006117088261173f565b9050919050565b600061171a8261173f565b9050919050565b60008115159050919050565b6000611738826116fd565b9050919050565b600073ffffffffffffffffffffffffffffffffffffffff82169050919050565b6000819050919050565b60006117748261177b565b9050919050565b60006117868261173f565b9050919050565b60006117988261175f565b91507fffffffffffffffffffffffffffffffffffffffffffffffffffffffffffffffff8214156117cb576117ca6117d6565b5b600182019050919050565b7f4e487b7100000000000000000000000000000000000000000000000000000000600052601160045260246000fd5b7f4e487b7100000000000000000000000000000000000000000000000000000000600052601260045260246000fd5b7f436f6c6c656374696f6e206e6f7420617070726f766564000000000000000000600082015250565b7f4974656d204944206d7573742062652067726561746572207468616e20300000600082015250565b7f4f776e61626c653a206e6577206f776e657220697320746865207a65726f206160008201527f6464726573730000000000000000000000000000000000000000000000000000602082015250565b7f4e6f7420656e6f7567682045544820746f20636f766572206974656d2070726960008201527f636520616e64206d61726b657420666565000000000000000000000000000000602082015250565b7f4974656d20646f65736e27742065786973740000000000000000000000000000600082015250565b7f4f776e61626c653a2063616c6c6572206973206e6f7420746865206f776e6572600082015250565b7f4f6e6c79207468652073656c6c65722063616e20756e6c69737420746865206960008201527f74656d0000000000000000000000000000000000000000000000000000000000602082015250565b7f4974656d2068617320616c7265616479206265656e20736f6c64000000000000600082015250565b7f5265656e7472616e637947756172643a207265656e7472616e742063616c6c00600082015250565b7f436f6c6c656374696f6e20616c726561647920617070726f7665640000000000600082015250565b7f5072696365206d7573742062652067726561746572207468616e203000000000600082015250565b611a72816116fd565b8114611a7d57600080fd5b50565b611a898161172d565b8114611a9457600080fd5b50565b611aa08161175f565b8114611aab57600080fd5b5056fea264697066735822122093b307ded234f773babc5a318f13d7e79ca0a8739ed15025f17a8fa2a6d25db064736f6c63430008040033",
  "linkReferences": {},
  "deployedLinkReferences": {}
}